{
  "contractName": "FileRegistry",
  "abi": [
    {
      "anonymous": false,
      "inputs": [
        {
          "indexed": true,
          "internalType": "uint256",
          "name": "fileId",
          "type": "uint256"
        },
        {
          "indexed": false,
          "internalType": "bytes32",
          "name": "fileHash",
          "type": "bytes32"
        },
        {
          "indexed": false,
          "internalType": "string",
          "name": "fileName",
          "type": "string"
        },
        {
          "indexed": false,
          "internalType": "uint256",
          "name": "timestamp",
          "type": "uint256"
        },
        {
          "indexed": false,
          "internalType": "address",
          "name": "uploader",
          "type": "address"
        },
        {
          "indexed": false,
          "internalType": "uint256",
          "name": "version",
          "type": "uint256"
        },
        {
          "indexed": false,
          "internalType": "uint256",
          "name": "baseFileId",
          "type": "uint256"
        }
      ],
      "name": "FileAdded",
      "type": "event"
    },
    {
      "inputs": [],
      "name": "fileCounter",
      "outputs": [
        {
          "internalType": "uint256",
          "name": "",
          "type": "uint256"
        }
      ],
      "stateMutability": "view",
      "type": "function",
      "constant": true
    },
    {
      "inputs": [
        {
          "internalType": "bytes32",
          "name": "fileHash",
          "type": "bytes32"
        },
        {
          "internalType": "string",
          "name": "fileName",
          "type": "string"
        },
        {
          "internalType": "uint256",
          "name": "baseFileId",
          "type": "uint256"
        }
      ],
      "name": "addFile",
      "outputs": [],
      "stateMutability": "nonpayable",
      "type": "function"
    },
    {
      "inputs": [
        {
          "internalType": "uint256",
          "name": "fileId",
          "type": "uint256"
        }
      ],
      "name": "getFile",
      "outputs": [
        {
          "components": [
            {
              "internalType": "uint256",
              "name": "fileId",
              "type": "uint256"
            },
            {
              "internalType": "bytes32",
              "name": "fileHash",
              "type": "bytes32"
            },
            {
              "internalType": "string",
              "name": "fileName",
              "type": "string"
            },
            {
              "internalType": "uint256",
              "name": "timestamp",
              "type": "uint256"
            },
            {
              "internalType": "address",
              "name": "uploader",
              "type": "address"
            },
            {
              "internalType": "uint256",
              "name": "version",
              "type": "uint256"
            },
            {
              "internalType": "uint256",
              "name": "baseFileId",
              "type": "uint256"
            }
          ],
          "internalType": "struct FileRegistry.File",
          "name": "",
          "type": "tuple"
        }
      ],
      "stateMutability": "view",
      "type": "function",
      "constant": true
    },
    {
      "inputs": [],
      "name": "getAllFiles",
      "outputs": [
        {
          "components": [
            {
              "internalType": "uint256",
              "name": "fileId",
              "type": "uint256"
            },
            {
              "internalType": "bytes32",
              "name": "fileHash",
              "type": "bytes32"
            },
            {
              "internalType": "string",
              "name": "fileName",
              "type": "string"
            },
            {
              "internalType": "uint256",
              "name": "timestamp",
              "type": "uint256"
            },
            {
              "internalType": "address",
              "name": "uploader",
              "type": "address"
            },
            {
              "internalType": "uint256",
              "name": "version",
              "type": "uint256"
            },
            {
              "internalType": "uint256",
              "name": "baseFileId",
              "type": "uint256"
            }
          ],
          "internalType": "struct FileRegistry.File[]",
          "name": "",
          "type": "tuple[]"
        }
      ],
      "stateMutability": "view",
      "type": "function",
      "constant": true
    },
    {
      "inputs": [
        {
          "internalType": "address",
          "name": "user",
          "type": "address"
        }
      ],
      "name": "getUserFiles",
      "outputs": [
        {
          "components": [
            {
              "internalType": "uint256",
              "name": "fileId",
              "type": "uint256"
            },
            {
              "internalType": "bytes32",
              "name": "fileHash",
              "type": "bytes32"
            },
            {
              "internalType": "string",
              "name": "fileName",
              "type": "string"
            },
            {
              "internalType": "uint256",
              "name": "timestamp",
              "type": "uint256"
            },
            {
              "internalType": "address",
              "name": "uploader",
              "type": "address"
            },
            {
              "internalType": "uint256",
              "name": "version",
              "type": "uint256"
            },
            {
              "internalType": "uint256",
              "name": "baseFileId",
              "type": "uint256"
            }
          ],
          "internalType": "struct FileRegistry.File[]",
          "name": "",
          "type": "tuple[]"
        }
      ],
      "stateMutability": "view",
      "type": "function",
      "constant": true
    },
    {
      "inputs": [
        {
          "internalType": "uint256",
          "name": "fileId",
          "type": "uint256"
        },
        {
          "internalType": "bytes32",
          "name": "fileHash",
          "type": "bytes32"
        },
        {
          "internalType": "uint256",
          "name": "version",
          "type": "uint256"
        }
      ],
      "name": "verifySpecificVersion",
      "outputs": [
        {
          "internalType": "bool",
          "name": "",
          "type": "bool"
        }
      ],
      "stateMutability": "view",
      "type": "function",
      "constant": true
    },
    {
      "inputs": [
        {
          "internalType": "uint256",
          "name": "baseFileId",
          "type": "uint256"
        }
      ],
      "name": "getFileVersions",
      "outputs": [
        {
          "components": [
            {
              "internalType": "uint256",
              "name": "fileId",
              "type": "uint256"
            },
            {
              "internalType": "bytes32",
              "name": "fileHash",
              "type": "bytes32"
            },
            {
              "internalType": "string",
              "name": "fileName",
              "type": "string"
            },
            {
              "internalType": "uint256",
              "name": "timestamp",
              "type": "uint256"
            },
            {
              "internalType": "address",
              "name": "uploader",
              "type": "address"
            },
            {
              "internalType": "uint256",
              "name": "version",
              "type": "uint256"
            },
            {
              "internalType": "uint256",
              "name": "baseFileId",
              "type": "uint256"
            }
          ],
          "internalType": "struct FileRegistry.File[]",
          "name": "",
          "type": "tuple[]"
        }
      ],
      "stateMutability": "view",
      "type": "function",
      "constant": true
    }
  ],
  "bytecode": "0x60806040526000805534801561001457600080fd5b50611d68806100246000396000f3fe608060405234801561001057600080fd5b506004361061007d5760003560e01c80636d3b52981161005b5780636d3b5298146100fe5780637690d51b1461012e578063817959f71461015e578063ff24b5d51461017c5761007d565b80631fc37922146100825780632bfda313146100b25780635b8828ff146100e2575b600080fd5b61009c600480360381019061009791906113c3565b61019a565b6040516100a9919061188d565b60405180910390f35b6100cc60048036038101906100c79190611453565b610493565b6040516100d991906119b2565b60405180910390f35b6100fc60048036038101906100f791906113ec565b610632565b005b61011860048036038101906101139190611453565b6109cf565b604051610125919061188d565b60405180910390f35b6101486004803603810190610143919061147c565b610cf4565b60405161015591906118af565b60405180910390f35b610166610fad565b60405161017391906119d4565b60405180910390f35b610184610fb3565b604051610191919061188d565b60405180910390f35b60606000600360008473ffffffffffffffffffffffffffffffffffffffff1673ffffffffffffffffffffffffffffffffffffffff16815260200190815260200160002080548060200260200160405190810160405280929190818152602001828054801561022757602002820191906000526020600020905b815481526020019060010190808311610213575b505050505090506000815167ffffffffffffffff811115610271577f4e487b7100000000000000000000000000000000000000000000000000000000600052604160045260246000fd5b6040519080825280602002602001820160405280156102aa57816020015b610297611223565b81526020019060019003908161028f5790505b50905060005b825181101561048857600160008483815181106102f6577f4e487b7100000000000000000000000000000000000000000000000000000000600052603260045260246000fd5b602002602001015181526020019081526020016000206040518060e0016040529081600082015481526020016001820154815260200160028201805461033b90611bd4565b80601f016020809104026020016040519081016040528092919081815260200182805461036790611bd4565b80156103b45780601f10610389576101008083540402835291602001916103b4565b820191906000526020600020905b81548152906001019060200180831161039757829003601f168201915b50505050508152602001600382015481526020016004820160009054906101000a900473ffffffffffffffffffffffffffffffffffffffff1673ffffffffffffffffffffffffffffffffffffffff1673ffffffffffffffffffffffffffffffffffffffff1681526020016005820154815260200160068201548152505082828151811061046a577f4e487b7100000000000000000000000000000000000000000000000000000000600052603260045260246000fd5b6020026020010181905250808061048090611c06565b9150506102b0565b508092505050919050565b61049b611223565b816001600084815260200190815260200160002060000154146104f3576040517f08c379a00000000000000000000000000000000000000000000000000000000081526004016104ea90611952565b60405180910390fd5b600160008381526020019081526020016000206040518060e0016040529081600082015481526020016001820154815260200160028201805461053590611bd4565b80601f016020809104026020016040519081016040528092919081815260200182805461056190611bd4565b80156105ae5780601f10610583576101008083540402835291602001916105ae565b820191906000526020600020905b81548152906001019060200180831161059157829003601f168201915b50505050508152602001600382015481526020016004820160009054906101000a900473ffffffffffffffffffffffffffffffffffffffff1673ffffffffffffffffffffffffffffffffffffffff1673ffffffffffffffffffffffffffffffffffffffff168152602001600582015481526020016006820154815250509050919050565b6000600560008581526020019081526020016000205414610688576040517f08c379a000000000000000000000000000000000000000000000000000000000815260040161067f90611932565b60405180910390fd5b6000806000815461069890611c06565b91905081905590506000429050600060019050600084146107ab578360016000868152602001908152602001600020600001541461070b576040517f08c379a000000000000000000000000000000000000000000000000000000000815260040161070290611992565b60405180910390fd5b6001806000600460008881526020019081526020016000206001600460008a8152602001908152602001600020805490506107469190611b0c565b8154811061077d577f4e487b7100000000000000000000000000000000000000000000000000000000600052603260045260246000fd5b90600052602060002001548152602001908152602001600020600501546107a49190611ab6565b90506107af565b8293505b6040518060e001604052808481526020018781526020018681526020018381526020013373ffffffffffffffffffffffffffffffffffffffff16815260200182815260200185815250600160008581526020019081526020016000206000820151816000015560208201518160010155604082015181600201908051906020019061083b929190611279565b506060820151816003015560808201518160040160006101000a81548173ffffffffffffffffffffffffffffffffffffffff021916908373ffffffffffffffffffffffffffffffffffffffff16021790555060a0820151816005015560c082015181600601559050506002839080600181540180825580915050600190039060005260206000200160009091909190915055600360003373ffffffffffffffffffffffffffffffffffffffff1673ffffffffffffffffffffffffffffffffffffffff16815260200190815260200160002083908060018154018082558091505060019003906000526020600020016000909190919091505560046000858152602001908152602001600020839080600181540180825580915050600190039060005260206000200160009091909190915055826005600088815260200190815260200160002081905550827f252b098a85092d52565ea3f5b44dcaa7d3c1792b105d5c2b76eb2ea42b597db187878533868a6040516109bf969594939291906118ca565b60405180910390a2505050505050565b606081600160008481526020019081526020016000206000015414610a29576040517f08c379a0000000000000000000000000000000000000000000000000000000008152600401610a2090611992565b60405180910390fd5b600060046000848152602001908152602001600020805480602002602001604051908101604052809291908181526020018280548015610a8857602002820191906000526020600020905b815481526020019060010190808311610a74575b505050505090506000815167ffffffffffffffff811115610ad2577f4e487b7100000000000000000000000000000000000000000000000000000000600052604160045260246000fd5b604051908082528060200260200182016040528015610b0b57816020015b610af8611223565b815260200190600190039081610af05790505b50905060005b8251811015610ce95760016000848381518110610b57577f4e487b7100000000000000000000000000000000000000000000000000000000600052603260045260246000fd5b602002602001015181526020019081526020016000206040518060e00160405290816000820154815260200160018201548152602001600282018054610b9c90611bd4565b80601f0160208091040260200160405190810160405280929190818152602001828054610bc890611bd4565b8015610c155780601f10610bea57610100808354040283529160200191610c15565b820191906000526020600020905b815481529060010190602001808311610bf857829003601f168201915b50505050508152602001600382015481526020016004820160009054906101000a900473ffffffffffffffffffffffffffffffffffffffff1673ffffffffffffffffffffffffffffffffffffffff1673ffffffffffffffffffffffffffffffffffffffff16815260200160058201548152602001600682015481525050828281518110610ccb577f4e487b7100000000000000000000000000000000000000000000000000000000600052603260045260246000fd5b60200260200101819052508080610ce190611c06565b915050610b11565b508092505050919050565b600083600160008681526020019081526020016000206000015414610d4e576040517f08c379a0000000000000000000000000000000000000000000000000000000008152600401610d4590611952565b60405180910390fd5b8160016000868152602001908152602001600020600501541015610da7576040517f08c379a0000000000000000000000000000000000000000000000000000000008152600401610d9e90611972565b60405180910390fd5b826001600086815260200190815260200160002060010154148015610de15750816001600086815260200190815260200160002060050154145b15610def5760019050610fa6565b60006004600060016000888152602001908152602001600020600601548152602001908152602001600020805480602002602001604051908101604052809291908181526020018280548015610e6457602002820191906000526020600020905b815481526020019060010190808311610e50575b5050505050905060005b8151811015610f9f5785828281518110610eb1577f4e487b7100000000000000000000000000000000000000000000000000000000600052603260045260246000fd5b6020026020010151148015610f1b57508460016000848481518110610eff577f4e487b7100000000000000000000000000000000000000000000000000000000600052603260045260246000fd5b6020026020010151815260200190815260200160002060010154145b8015610f7c57508360016000848481518110610f60577f4e487b7100000000000000000000000000000000000000000000000000000000600052603260045260246000fd5b6020026020010151815260200190815260200160002060050154145b15610f8c57600192505050610fa6565b8080610f9790611c06565b915050610e6e565b5060009150505b9392505050565b60005481565b6060600060028054905067ffffffffffffffff811115610ffc577f4e487b7100000000000000000000000000000000000000000000000000000000600052604160045260246000fd5b60405190808252806020026020018201604052801561103557816020015b611022611223565b81526020019060019003908161101a5790505b50905060005b60028054905081101561121b576001600060028381548110611086577f4e487b7100000000000000000000000000000000000000000000000000000000600052603260045260246000fd5b906000526020600020015481526020019081526020016000206040518060e001604052908160008201548152602001600182015481526020016002820180546110ce90611bd4565b80601f01602080910402602001604051908101604052809291908181526020018280546110fa90611bd4565b80156111475780601f1061111c57610100808354040283529160200191611147565b820191906000526020600020905b81548152906001019060200180831161112a57829003601f168201915b50505050508152602001600382015481526020016004820160009054906101000a900473ffffffffffffffffffffffffffffffffffffffff1673ffffffffffffffffffffffffffffffffffffffff1673ffffffffffffffffffffffffffffffffffffffff168152602001600582015481526020016006820154815250508282815181106111fd577f4e487b7100000000000000000000000000000000000000000000000000000000600052603260045260246000fd5b6020026020010181905250808061121390611c06565b91505061103b565b508091505090565b6040518060e0016040528060008152602001600080191681526020016060815260200160008152602001600073ffffffffffffffffffffffffffffffffffffffff16815260200160008152602001600081525090565b82805461128590611bd4565b90600052602060002090601f0160209004810192826112a757600085556112ee565b82601f106112c057805160ff19168380011785556112ee565b828001600101855582156112ee579182015b828111156112ed5782518255916020019190600101906112d2565b5b5090506112fb91906112ff565b5090565b5b80821115611318576000816000905550600101611300565b5090565b600061132f61132a84611a20565b6119ef565b90508281526020810184848401111561134757600080fd5b611352848285611b92565b509392505050565b60008135905061136981611ced565b92915050565b60008135905061137e81611d04565b92915050565b600082601f83011261139557600080fd5b81356113a584826020860161131c565b91505092915050565b6000813590506113bd81611d1b565b92915050565b6000602082840312156113d557600080fd5b60006113e38482850161135a565b91505092915050565b60008060006060848603121561140157600080fd5b600061140f8682870161136f565b935050602084013567ffffffffffffffff81111561142c57600080fd5b61143886828701611384565b9250506040611449868287016113ae565b9150509250925092565b60006020828403121561146557600080fd5b6000611473848285016113ae565b91505092915050565b60008060006060848603121561149157600080fd5b600061149f868287016113ae565b93505060206114b08682870161136f565b92505060406114c1868287016113ae565b9150509250925092565b60006114d78383611737565b905092915050565b6114e881611b40565b82525050565b6114f781611b40565b82525050565b600061150882611a60565b6115128185611a83565b93508360208202850161152485611a50565b8060005b85811015611560578484038952815161154185826114cb565b945061154c83611a76565b925060208a01995050600181019050611528565b50829750879550505050505092915050565b61157b81611b52565b82525050565b61158a81611b5e565b82525050565b61159981611b5e565b82525050565b60006115aa82611a6b565b6115b48185611a94565b93506115c4818560208601611ba1565b6115cd81611cdc565b840191505092915050565b60006115e382611a6b565b6115ed8185611aa5565b93506115fd818560208601611ba1565b61160681611cdc565b840191505092915050565b600061161e602283611aa5565b91507f46696c6520776974682074686973206861736820616c7265616479206578697360008301527f74730000000000000000000000000000000000000000000000000000000000006020830152604082019050919050565b6000611684601383611aa5565b91507f46696c6520646f6573206e6f74206578697374000000000000000000000000006000830152602082019050919050565b60006116c4601683611aa5565b91507f56657273696f6e20646f6573206e6f74206578697374000000000000000000006000830152602082019050919050565b6000611704601883611aa5565b91507f426173652066696c6520646f6573206e6f7420657869737400000000000000006000830152602082019050919050565b600060e08301600083015161174f600086018261186f565b5060208301516117626020860182611581565b506040830151848203604086015261177a828261159f565b915050606083015161178f606086018261186f565b5060808301516117a260808601826114df565b5060a08301516117b560a086018261186f565b5060c08301516117c860c086018261186f565b508091505092915050565b600060e0830160008301516117eb600086018261186f565b5060208301516117fe6020860182611581565b5060408301518482036040860152611816828261159f565b915050606083015161182b606086018261186f565b50608083015161183e60808601826114df565b5060a083015161185160a086018261186f565b5060c083015161186460c086018261186f565b508091505092915050565b61187881611b88565b82525050565b61188781611b88565b82525050565b600060208201905081810360008301526118a781846114fd565b905092915050565b60006020820190506118c46000830184611572565b92915050565b600060c0820190506118df6000830189611590565b81810360208301526118f181886115d8565b9050611900604083018761187e565b61190d60608301866114ee565b61191a608083018561187e565b61192760a083018461187e565b979650505050505050565b6000602082019050818103600083015261194b81611611565b9050919050565b6000602082019050818103600083015261196b81611677565b9050919050565b6000602082019050818103600083015261198b816116b7565b9050919050565b600060208201905081810360008301526119ab816116f7565b9050919050565b600060208201905081810360008301526119cc81846117d3565b905092915050565b60006020820190506119e9600083018461187e565b92915050565b6000604051905081810181811067ffffffffffffffff82111715611a1657611a15611cad565b5b8060405250919050565b600067ffffffffffffffff821115611a3b57611a3a611cad565b5b601f19601f8301169050602081019050919050565b6000819050602082019050919050565b600081519050919050565b600081519050919050565b6000602082019050919050565b600082825260208201905092915050565b600082825260208201905092915050565b600082825260208201905092915050565b6000611ac182611b88565b9150611acc83611b88565b9250827fffffffffffffffffffffffffffffffffffffffffffffffffffffffffffffffff03821115611b0157611b00611c4f565b5b828201905092915050565b6000611b1782611b88565b9150611b2283611b88565b925082821015611b3557611b34611c4f565b5b828203905092915050565b6000611b4b82611b68565b9050919050565b60008115159050919050565b6000819050919050565b600073ffffffffffffffffffffffffffffffffffffffff82169050919050565b6000819050919050565b82818337600083830152505050565b60005b83811015611bbf578082015181840152602081019050611ba4565b83811115611bce576000848401525b50505050565b60006002820490506001821680611bec57607f821691505b60208210811415611c0057611bff611c7e565b5b50919050565b6000611c1182611b88565b91507fffffffffffffffffffffffffffffffffffffffffffffffffffffffffffffffff821415611c4457611c43611c4f565b5b600182019050919050565b7f4e487b7100000000000000000000000000000000000000000000000000000000600052601160045260246000fd5b7f4e487b7100000000000000000000000000000000000000000000000000000000600052602260045260246000fd5b7f4e487b7100000000000000000000000000000000000000000000000000000000600052604160045260246000fd5b6000601f19601f8301169050919050565b611cf681611b40565b8114611d0157600080fd5b50565b611d0d81611b5e565b8114611d1857600080fd5b50565b611d2481611b88565b8114611d2f57600080fd5b5056fea26469706673582212202240e6f46a9a32bdecfcfe3aaac0d9c1902450cf9bb84a31242de833e8502cae64736f6c63430008000033",
  "immutableReferences": {},
  "source": "// SPDX-License-Identifier: MIT\npragma solidity ^0.8.0;\n\ncontract FileRegistry {\n    uint public fileCounter = 0; // Licznik do generowania unikalnych fileID\n\n    // Struktura przechowujca dane o pliku\n    struct File {\n        uint fileId; // Unikalny identyfikator pliku\n        bytes32 fileHash; // Hash pliku (np. SHA-256)\n        string fileName; // Nazwa pliku\n        uint timestamp; // Data dodania pliku\n        address uploader; // Adres uytkownika, ktry doda plik\n        uint version; // Numer wersji pliku\n        uint baseFileId; // ID bazowego pliku, aby ledzi wersje\n    }\n\n    // Mapowanie ID pliku do jego danych\n    mapping(uint => File) private files;\n\n    // Lista wszystkich fileId w systemie\n    uint[] private allFileIds;\n\n    // Mapowanie adresu uytkownika do listy fileId, ktre doda\n    mapping(address => uint[]) private userFiles;\n\n    // Mapowanie hash bazowego pliku do listy fileId jego wersji\n    mapping(uint => uint[]) private fileVersions;\n\n    // Mapowanie hash do jego ID pliku, aby unikn duplikatw\n    mapping(bytes32 => uint) private fileHashToId;\n\n    // Wydarzenie emitowane przy dodawaniu nowego pliku lub jego wersji\n    event FileAdded(\n        uint indexed fileId,\n        bytes32 fileHash,\n        string fileName,\n        uint timestamp,\n        address uploader,\n        uint version,\n        uint baseFileId\n    );\n\n    /**\n     * @notice Dodaje nowy plik lub now wersj istniejcego pliku\n     * @param fileHash Hash pliku\n     * @param fileName Nazwa pliku\n     * @param baseFileId ID bazowego pliku, jeli jest to nowa wersja; 0 jeli to nowy plik\n     */\n    function addFile(\n        bytes32 fileHash,\n        string memory fileName,\n        uint baseFileId\n    ) public {\n        // Sprawdzenie, czy hash pliku ju istnieje\n        require(\n            fileHashToId[fileHash] == 0,\n            \"File with this hash already exists\"\n        );\n\n        uint fileId = ++fileCounter; // Generowanie nowego unikalnego fileID\n        uint timestamp = block.timestamp;\n        uint version = 1; // Domylnie wersja 1 dla nowego pliku\n\n        // Jeli jest to nowa wersja istniejcego pliku, pobieramy numer wersji\n        if (baseFileId != 0) {\n            require(\n                files[baseFileId].fileId == baseFileId,\n                \"Base file does not exist\"\n            );\n            version =\n                files[\n                    fileVersions[baseFileId][\n                        fileVersions[baseFileId].length - 1\n                    ]\n                ].version +\n                1;\n        } else {\n            baseFileId = fileId; // Jeli to nowy plik, ustawiamy jego wasne ID jako bazowe\n        }\n\n        // Tworzenie nowego pliku (lub wersji) i zapisywanie go w mapowaniu\n        files[fileId] = File({\n            fileId: fileId,\n            fileHash: fileHash,\n            fileName: fileName,\n            timestamp: timestamp,\n            uploader: msg.sender,\n            version: version,\n            baseFileId: baseFileId\n        });\n\n        // Dodanie fileId do listy wszystkich plikw, do plikw uytkownika i do wersji bazowego pliku\n        allFileIds.push(fileId);\n        userFiles[msg.sender].push(fileId);\n        fileVersions[baseFileId].push(fileId);\n\n        // Mapa hash do ID pliku\n        fileHashToId[fileHash] = fileId;\n\n        // Emitowanie wydarzenia przy dodaniu pliku lub jego wersji\n        emit FileAdded(\n            fileId,\n            fileHash,\n            fileName,\n            timestamp,\n            msg.sender,\n            version,\n            baseFileId\n        );\n    }\n\n    /**\n     * @notice Pobiera dane pliku na podstawie jego ID\n     * @param fileId Unikalny identyfikator pliku\n     * @return Dane pliku\n     */\n    function getFile(uint fileId) public view returns (File memory) {\n        require(files[fileId].fileId == fileId, \"File does not exist\");\n        return files[fileId];\n    }\n\n    /**\n     * @notice Pobiera wszystkie pliki w rejestrze\n     * @return Lista wszystkich plikw\n     */\n    function getAllFiles() public view returns (File[] memory) {\n        File[] memory allFiles = new File[](allFileIds.length);\n        for (uint i = 0; i < allFileIds.length; i++) {\n            allFiles[i] = files[allFileIds[i]];\n        }\n        return allFiles;\n    }\n\n    /**\n     * @notice Pobiera wszystkie pliki przesane przez konkretnego uytkownika\n     * @param user Adres uytkownika\n     * @return Lista plikw przesanych przez danego uytkownika\n     */\n    function getUserFiles(address user) public view returns (File[] memory) {\n        uint[] memory userFileIds = userFiles[user];\n        File[] memory userFilesList = new File[](userFileIds.length);\n        for (uint i = 0; i < userFileIds.length; i++) {\n            userFilesList[i] = files[userFileIds[i]];\n        }\n        return userFilesList;\n    }\n\n    /**\n     * @notice Weryfikuje, czy podany hash odpowiada konkretnej wersji pliku\n     * @param fileId Unikalny identyfikator pliku\n     * @param fileHash Hash do weryfikacji\n     * @param version Numer wersji do weryfikacji\n     * @return Zwraca true, jeli wersja pliku o podanym ID i hashu istnieje, w przeciwnym razie false\n     */\n    function verifySpecificVersion(\n        uint fileId,\n        bytes32 fileHash,\n        uint version\n    ) public view returns (bool) {\n        require(files[fileId].fileId == fileId, \"File does not exist\");\n        require(files[fileId].version >= version, \"Version does not exist\");\n\n        // Sprawdzenie, czy hash pliku zgadza si z podanym hashem dla danej wersji\n        if (\n            files[fileId].fileHash == fileHash &&\n            files[fileId].version == version\n        ) {\n            return true; // Hash i wersja zgadzaj si\n        }\n\n        // Dla wersji bazowej, iterujemy przez wersje, aby znale zgodno\n        uint[] memory versionIds = fileVersions[files[fileId].baseFileId];\n        for (uint i = 0; i < versionIds.length; i++) {\n            if (\n                versionIds[i] == fileId &&\n                files[versionIds[i]].fileHash == fileHash &&\n                files[versionIds[i]].version == version\n            ) {\n                return true; // Zgodno hasha i wersji pliku\n            }\n        }\n\n        return false; // Brak zgodnoci\n    }\n\n    /**\n     * @notice Pobiera wszystkie wersje pliku na podstawie jego bazowego ID\n     * @param baseFileId Unikalny identyfikator bazowego pliku\n     * @return Lista wersji pliku\n     */\n    function getFileVersions(\n        uint baseFileId\n    ) public view returns (File[] memory) {\n        require(\n            files[baseFileId].fileId == baseFileId,\n            \"Base file does not exist\"\n        );\n\n        uint[] memory versionIds = fileVersions[baseFileId];\n        File[] memory versions = new File[](versionIds.length);\n\n        for (uint i = 0; i < versionIds.length; i++) {\n            versions[i] = files[versionIds[i]];\n        }\n\n        return versions;\n    }\n}\n",
  "sourcePath": "/Users/michalpozdal/Desktop/studia/CertifyLite/src/contracts/FileRegistry.sol",
  "compiler": {
    "name": "solc",
    "version": "0.8.0+commit.c7dfd78e.Emscripten.clang"
  },
  "schemaVersion": "3.4.16",
  "updatedAt": "2024-11-04T16:10:04.198Z",
  "networkType": "ethereum",
  "devdoc": {
    "kind": "dev",
    "methods": {
      "addFile(bytes32,string,uint256)": {
        "params": {
          "baseFileId": "ID bazowego pliku, jeli jest to nowa wersja; 0 jeli to nowy plik",
          "fileHash": "Hash pliku",
          "fileName": "Nazwa pliku"
        }
      },
      "getAllFiles()": {
        "returns": {
          "_0": "Lista wszystkich plikw"
        }
      },
      "getFile(uint256)": {
        "params": {
          "fileId": "Unikalny identyfikator pliku"
        },
        "returns": {
          "_0": "Dane pliku"
        }
      },
      "getFileVersions(uint256)": {
        "params": {
          "baseFileId": "Unikalny identyfikator bazowego pliku"
        },
        "returns": {
          "_0": "Lista wersji pliku"
        }
      },
      "getUserFiles(address)": {
        "params": {
          "user": "Adres uytkownika"
        },
        "returns": {
          "_0": "Lista plikw przesanych przez danego uytkownika"
        }
      },
      "verifySpecificVersion(uint256,bytes32,uint256)": {
        "params": {
          "fileHash": "Hash do weryfikacji",
          "fileId": "Unikalny identyfikator pliku",
          "version": "Numer wersji do weryfikacji"
        },
        "returns": {
          "_0": "Zwraca true, jeli wersja pliku o podanym ID i hashu istnieje, w przeciwnym razie false"
        }
      }
    },
    "version": 1
  },
  "userdoc": {
    "kind": "user",
    "methods": {
      "addFile(bytes32,string,uint256)": {
        "notice": "Dodaje nowy plik lub now wersj istniejcego pliku"
      },
      "getAllFiles()": {
        "notice": "Pobiera wszystkie pliki w rejestrze"
      },
      "getFile(uint256)": {
        "notice": "Pobiera dane pliku na podstawie jego ID"
      },
      "getFileVersions(uint256)": {
        "notice": "Pobiera wszystkie wersje pliku na podstawie jego bazowego ID"
      },
      "getUserFiles(address)": {
        "notice": "Pobiera wszystkie pliki przesane przez konkretnego uytkownika"
      },
      "verifySpecificVersion(uint256,bytes32,uint256)": {
        "notice": "Weryfikuje, czy podany hash odpowiada konkretnej wersji pliku"
      }
    },
    "version": 1
  }
}