{
  "contractName": "FileRegistry",
  "abi": [
    {
      "anonymous": false,
      "inputs": [
        {
          "indexed": true,
          "internalType": "uint256",
          "name": "fileId",
          "type": "uint256"
        },
        {
          "indexed": false,
          "internalType": "bytes32",
          "name": "fileHash",
          "type": "bytes32"
        },
        {
          "indexed": false,
          "internalType": "string",
          "name": "fileName",
          "type": "string"
        },
        {
          "indexed": false,
          "internalType": "uint256",
          "name": "timestamp",
          "type": "uint256"
        },
        {
          "indexed": false,
          "internalType": "address",
          "name": "uploader",
          "type": "address"
        },
        {
          "indexed": false,
          "internalType": "uint256",
          "name": "version",
          "type": "uint256"
        },
        {
          "indexed": false,
          "internalType": "uint256",
          "name": "baseFileId",
          "type": "uint256"
        }
      ],
      "name": "FileAdded",
      "type": "event"
    },
    {
      "inputs": [],
      "name": "fileCounter",
      "outputs": [
        {
          "internalType": "uint256",
          "name": "",
          "type": "uint256"
        }
      ],
      "stateMutability": "view",
      "type": "function",
      "constant": true
    },
    {
      "inputs": [
        {
          "internalType": "bytes32",
          "name": "fileHash",
          "type": "bytes32"
        },
        {
          "internalType": "string",
          "name": "fileName",
          "type": "string"
        },
        {
          "internalType": "uint256",
          "name": "baseFileId",
          "type": "uint256"
        }
      ],
      "name": "addFile",
      "outputs": [],
      "stateMutability": "nonpayable",
      "type": "function"
    },
    {
      "inputs": [
        {
          "internalType": "uint256",
          "name": "fileId",
          "type": "uint256"
        }
      ],
      "name": "getFile",
      "outputs": [
        {
          "components": [
            {
              "internalType": "uint256",
              "name": "fileId",
              "type": "uint256"
            },
            {
              "internalType": "bytes32",
              "name": "fileHash",
              "type": "bytes32"
            },
            {
              "internalType": "string",
              "name": "fileName",
              "type": "string"
            },
            {
              "internalType": "uint256",
              "name": "timestamp",
              "type": "uint256"
            },
            {
              "internalType": "address",
              "name": "uploader",
              "type": "address"
            },
            {
              "internalType": "uint256",
              "name": "version",
              "type": "uint256"
            },
            {
              "internalType": "uint256",
              "name": "baseFileId",
              "type": "uint256"
            }
          ],
          "internalType": "struct FileRegistry.File",
          "name": "",
          "type": "tuple"
        }
      ],
      "stateMutability": "view",
      "type": "function",
      "constant": true
    },
    {
      "inputs": [],
      "name": "getAllFiles",
      "outputs": [
        {
          "components": [
            {
              "internalType": "uint256",
              "name": "fileId",
              "type": "uint256"
            },
            {
              "internalType": "bytes32",
              "name": "fileHash",
              "type": "bytes32"
            },
            {
              "internalType": "string",
              "name": "fileName",
              "type": "string"
            },
            {
              "internalType": "uint256",
              "name": "timestamp",
              "type": "uint256"
            },
            {
              "internalType": "address",
              "name": "uploader",
              "type": "address"
            },
            {
              "internalType": "uint256",
              "name": "version",
              "type": "uint256"
            },
            {
              "internalType": "uint256",
              "name": "baseFileId",
              "type": "uint256"
            }
          ],
          "internalType": "struct FileRegistry.File[]",
          "name": "",
          "type": "tuple[]"
        }
      ],
      "stateMutability": "view",
      "type": "function",
      "constant": true
    },
    {
      "inputs": [],
      "name": "getLatestFiles",
      "outputs": [
        {
          "components": [
            {
              "internalType": "uint256",
              "name": "fileId",
              "type": "uint256"
            },
            {
              "internalType": "bytes32",
              "name": "fileHash",
              "type": "bytes32"
            },
            {
              "internalType": "string",
              "name": "fileName",
              "type": "string"
            },
            {
              "internalType": "uint256",
              "name": "timestamp",
              "type": "uint256"
            },
            {
              "internalType": "address",
              "name": "uploader",
              "type": "address"
            },
            {
              "internalType": "uint256",
              "name": "version",
              "type": "uint256"
            },
            {
              "internalType": "uint256",
              "name": "baseFileId",
              "type": "uint256"
            }
          ],
          "internalType": "struct FileRegistry.File[]",
          "name": "",
          "type": "tuple[]"
        }
      ],
      "stateMutability": "view",
      "type": "function",
      "constant": true
    },
    {
      "inputs": [
        {
          "internalType": "address",
          "name": "user",
          "type": "address"
        }
      ],
      "name": "getLatestFilesByUser",
      "outputs": [
        {
          "components": [
            {
              "internalType": "uint256",
              "name": "fileId",
              "type": "uint256"
            },
            {
              "internalType": "bytes32",
              "name": "fileHash",
              "type": "bytes32"
            },
            {
              "internalType": "string",
              "name": "fileName",
              "type": "string"
            },
            {
              "internalType": "uint256",
              "name": "timestamp",
              "type": "uint256"
            },
            {
              "internalType": "address",
              "name": "uploader",
              "type": "address"
            },
            {
              "internalType": "uint256",
              "name": "version",
              "type": "uint256"
            },
            {
              "internalType": "uint256",
              "name": "baseFileId",
              "type": "uint256"
            }
          ],
          "internalType": "struct FileRegistry.File[]",
          "name": "",
          "type": "tuple[]"
        }
      ],
      "stateMutability": "view",
      "type": "function",
      "constant": true
    },
    {
      "inputs": [
        {
          "internalType": "address",
          "name": "user",
          "type": "address"
        }
      ],
      "name": "getUserFiles",
      "outputs": [
        {
          "components": [
            {
              "internalType": "uint256",
              "name": "fileId",
              "type": "uint256"
            },
            {
              "internalType": "bytes32",
              "name": "fileHash",
              "type": "bytes32"
            },
            {
              "internalType": "string",
              "name": "fileName",
              "type": "string"
            },
            {
              "internalType": "uint256",
              "name": "timestamp",
              "type": "uint256"
            },
            {
              "internalType": "address",
              "name": "uploader",
              "type": "address"
            },
            {
              "internalType": "uint256",
              "name": "version",
              "type": "uint256"
            },
            {
              "internalType": "uint256",
              "name": "baseFileId",
              "type": "uint256"
            }
          ],
          "internalType": "struct FileRegistry.File[]",
          "name": "",
          "type": "tuple[]"
        }
      ],
      "stateMutability": "view",
      "type": "function",
      "constant": true
    },
    {
      "inputs": [
        {
          "internalType": "uint256",
          "name": "fileId",
          "type": "uint256"
        },
        {
          "internalType": "bytes32",
          "name": "fileHash",
          "type": "bytes32"
        },
        {
          "internalType": "uint256",
          "name": "version",
          "type": "uint256"
        }
      ],
      "name": "verifySpecificVersion",
      "outputs": [
        {
          "internalType": "bool",
          "name": "",
          "type": "bool"
        }
      ],
      "stateMutability": "view",
      "type": "function",
      "constant": true
    },
    {
      "inputs": [
        {
          "internalType": "uint256",
          "name": "baseFileId",
          "type": "uint256"
        }
      ],
      "name": "getFileVersions",
      "outputs": [
        {
          "components": [
            {
              "internalType": "uint256",
              "name": "fileId",
              "type": "uint256"
            },
            {
              "internalType": "bytes32",
              "name": "fileHash",
              "type": "bytes32"
            },
            {
              "internalType": "string",
              "name": "fileName",
              "type": "string"
            },
            {
              "internalType": "uint256",
              "name": "timestamp",
              "type": "uint256"
            },
            {
              "internalType": "address",
              "name": "uploader",
              "type": "address"
            },
            {
              "internalType": "uint256",
              "name": "version",
              "type": "uint256"
            },
            {
              "internalType": "uint256",
              "name": "baseFileId",
              "type": "uint256"
            }
          ],
          "internalType": "struct FileRegistry.File[]",
          "name": "",
          "type": "tuple[]"
        }
      ],
      "stateMutability": "view",
      "type": "function",
      "constant": true
    }
  ],
  "bytecode": "0x60806040526000805534801561001457600080fd5b5061288b806100246000396000f3fe608060405234801561001057600080fd5b50600436106100935760003560e01c80637690d51b116100665780637690d51b14610144578063817959f71461017457806387922e9114610192578063e7f55ec6146101b0578063ff24b5d5146101e057610093565b80631fc37922146100985780632bfda313146100c85780635b8828ff146100f85780636d3b529814610114575b600080fd5b6100b260048036038101906100ad9190611e60565b6101fe565b6040516100bf9190612390565b60405180910390f35b6100e260048036038101906100dd9190611ef0565b6104f7565b6040516100ef91906124d5565b60405180910390f35b610112600480360381019061010d9190611e89565b610696565b005b61012e60048036038101906101299190611ef0565b610ad7565b60405161013b9190612390565b60405180910390f35b61015e60048036038101906101599190611f19565b610dfc565b60405161016b91906123b2565b60405180910390f35b61017c6110b5565b60405161018991906124f7565b60405180910390f35b61019a6110bb565b6040516101a79190612390565b60405180910390f35b6101ca60048036038101906101c59190611e60565b611582565b6040516101d79190612390565b60405180910390f35b6101e8611a50565b6040516101f59190612390565b60405180910390f35b60606000600360008473ffffffffffffffffffffffffffffffffffffffff1673ffffffffffffffffffffffffffffffffffffffff16815260200190815260200160002080548060200260200160405190810160405280929190818152602001828054801561028b57602002820191906000526020600020905b815481526020019060010190808311610277575b505050505090506000815167ffffffffffffffff8111156102d5577f4e487b7100000000000000000000000000000000000000000000000000000000600052604160045260246000fd5b60405190808252806020026020018201604052801561030e57816020015b6102fb611cc0565b8152602001906001900390816102f35790505b50905060005b82518110156104ec576001600084838151811061035a577f4e487b7100000000000000000000000000000000000000000000000000000000600052603260045260246000fd5b602002602001015181526020019081526020016000206040518060e0016040529081600082015481526020016001820154815260200160028201805461039f906126f7565b80601f01602080910402602001604051908101604052809291908181526020018280546103cb906126f7565b80156104185780601f106103ed57610100808354040283529160200191610418565b820191906000526020600020905b8154815290600101906020018083116103fb57829003601f168201915b50505050508152602001600382015481526020016004820160009054906101000a900473ffffffffffffffffffffffffffffffffffffffff1673ffffffffffffffffffffffffffffffffffffffff1673ffffffffffffffffffffffffffffffffffffffff168152602001600582015481526020016006820154815250508282815181106104ce577f4e487b7100000000000000000000000000000000000000000000000000000000600052603260045260246000fd5b602002602001018190525080806104e490612729565b915050610314565b508092505050919050565b6104ff611cc0565b81600160008481526020019081526020016000206000015414610557576040517f08c379a000000000000000000000000000000000000000000000000000000000815260040161054e90612455565b60405180910390fd5b600160008381526020019081526020016000206040518060e00160405290816000820154815260200160018201548152602001600282018054610599906126f7565b80601f01602080910402602001604051908101604052809291908181526020018280546105c5906126f7565b80156106125780601f106105e757610100808354040283529160200191610612565b820191906000526020600020905b8154815290600101906020018083116105f557829003601f168201915b50505050508152602001600382015481526020016004820160009054906101000a900473ffffffffffffffffffffffffffffffffffffffff1673ffffffffffffffffffffffffffffffffffffffff1673ffffffffffffffffffffffffffffffffffffffff168152602001600582015481526020016006820154815250509050919050565b60006005600085815260200190815260200160002054146106ec576040517f08c379a00000000000000000000000000000000000000000000000000000000081526004016106e390612435565b60405180910390fd5b600080600081546106fc90612729565b91905081905590506000429050600060019050600084146108b3578360016000868152602001908152602001600020600001541461076f576040517f08c379a0000000000000000000000000000000000000000000000000000000008152600401610766906124b5565b60405180910390fd5b3373ffffffffffffffffffffffffffffffffffffffff166001600086815260200190815260200160002060040160009054906101000a900473ffffffffffffffffffffffffffffffffffffffff1673ffffffffffffffffffffffffffffffffffffffff1614610813576040517f08c379a000000000000000000000000000000000000000000000000000000000815260040161080a90612495565b60405180910390fd5b6001806000600460008881526020019081526020016000206001600460008a81526020019081526020016000208054905061084e919061262f565b81548110610885577f4e487b7100000000000000000000000000000000000000000000000000000000600052603260045260246000fd5b90600052602060002001548152602001908152602001600020600501546108ac91906125d9565b90506108b7565b8293505b6040518060e001604052808481526020018781526020018681526020018381526020013373ffffffffffffffffffffffffffffffffffffffff168152602001828152602001858152506001600085815260200190815260200160002060008201518160000155602082015181600101556040820151816002019080519060200190610943929190611d16565b506060820151816003015560808201518160040160006101000a81548173ffffffffffffffffffffffffffffffffffffffff021916908373ffffffffffffffffffffffffffffffffffffffff16021790555060a0820151816005015560c082015181600601559050506002839080600181540180825580915050600190039060005260206000200160009091909190915055600360003373ffffffffffffffffffffffffffffffffffffffff1673ffffffffffffffffffffffffffffffffffffffff16815260200190815260200160002083908060018154018082558091505060019003906000526020600020016000909190919091505560046000858152602001908152602001600020839080600181540180825580915050600190039060005260206000200160009091909190915055826005600088815260200190815260200160002081905550827f252b098a85092d52565ea3f5b44dcaa7d3c1792b105d5c2b76eb2ea42b597db187878533868a604051610ac7969594939291906123cd565b60405180910390a2505050505050565b606081600160008481526020019081526020016000206000015414610b31576040517f08c379a0000000000000000000000000000000000000000000000000000000008152600401610b28906124b5565b60405180910390fd5b600060046000848152602001908152602001600020805480602002602001604051908101604052809291908181526020018280548015610b9057602002820191906000526020600020905b815481526020019060010190808311610b7c575b505050505090506000815167ffffffffffffffff811115610bda577f4e487b7100000000000000000000000000000000000000000000000000000000600052604160045260246000fd5b604051908082528060200260200182016040528015610c1357816020015b610c00611cc0565b815260200190600190039081610bf85790505b50905060005b8251811015610df15760016000848381518110610c5f577f4e487b7100000000000000000000000000000000000000000000000000000000600052603260045260246000fd5b602002602001015181526020019081526020016000206040518060e00160405290816000820154815260200160018201548152602001600282018054610ca4906126f7565b80601f0160208091040260200160405190810160405280929190818152602001828054610cd0906126f7565b8015610d1d5780601f10610cf257610100808354040283529160200191610d1d565b820191906000526020600020905b815481529060010190602001808311610d0057829003601f168201915b50505050508152602001600382015481526020016004820160009054906101000a900473ffffffffffffffffffffffffffffffffffffffff1673ffffffffffffffffffffffffffffffffffffffff1673ffffffffffffffffffffffffffffffffffffffff16815260200160058201548152602001600682015481525050828281518110610dd3577f4e487b7100000000000000000000000000000000000000000000000000000000600052603260045260246000fd5b60200260200101819052508080610de990612729565b915050610c19565b508092505050919050565b600083600160008681526020019081526020016000206000015414610e56576040517f08c379a0000000000000000000000000000000000000000000000000000000008152600401610e4d90612455565b60405180910390fd5b8160016000868152602001908152602001600020600501541015610eaf576040517f08c379a0000000000000000000000000000000000000000000000000000000008152600401610ea690612475565b60405180910390fd5b826001600086815260200190815260200160002060010154148015610ee95750816001600086815260200190815260200160002060050154145b15610ef757600190506110ae565b60006004600060016000888152602001908152602001600020600601548152602001908152602001600020805480602002602001604051908101604052809291908181526020018280548015610f6c57602002820191906000526020600020905b815481526020019060010190808311610f58575b5050505050905060005b81518110156110a75785828281518110610fb9577f4e487b7100000000000000000000000000000000000000000000000000000000600052603260045260246000fd5b602002602001015114801561102357508460016000848481518110611007577f4e487b7100000000000000000000000000000000000000000000000000000000600052603260045260246000fd5b6020026020010151815260200190815260200160002060010154145b801561108457508360016000848481518110611068577f4e487b7100000000000000000000000000000000000000000000000000000000600052603260045260246000fd5b6020026020010151815260200190815260200160002060050154145b15611094576001925050506110ae565b808061109f90612729565b915050610f76565b5060009150505b9392505050565b60005481565b6060600060028054905067ffffffffffffffff811115611104577f4e487b7100000000000000000000000000000000000000000000000000000000600052604160045260246000fd5b60405190808252806020026020018201604052801561113d57816020015b61112a611cc0565b8152602001906001900390816111225790505b5090506000805b6002805490508110156114565760006001600060028481548110611191577f4e487b7100000000000000000000000000000000000000000000000000000000600052603260045260246000fd5b90600052602060002001548152602001908152602001600020600601549050600282815481106111ea577f4e487b7100000000000000000000000000000000000000000000000000000000600052603260045260246000fd5b9060005260206000200154600460008381526020019081526020016000206001600460008581526020019081526020016000208054905061122b919061262f565b81548110611262577f4e487b7100000000000000000000000000000000000000000000000000000000600052603260045260246000fd5b906000526020600020015414156114425760016000600284815481106112b1577f4e487b7100000000000000000000000000000000000000000000000000000000600052603260045260246000fd5b906000526020600020015481526020019081526020016000206040518060e001604052908160008201548152602001600182015481526020016002820180546112f9906126f7565b80601f0160208091040260200160405190810160405280929190818152602001828054611325906126f7565b80156113725780601f1061134757610100808354040283529160200191611372565b820191906000526020600020905b81548152906001019060200180831161135557829003601f168201915b50505050508152602001600382015481526020016004820160009054906101000a900473ffffffffffffffffffffffffffffffffffffffff1673ffffffffffffffffffffffffffffffffffffffff1673ffffffffffffffffffffffffffffffffffffffff16815260200160058201548152602001600682015481525050848481518110611428577f4e487b7100000000000000000000000000000000000000000000000000000000600052603260045260246000fd5b6020026020010181905250828061143e90612729565b9350505b50808061144e90612729565b915050611144565b5060008167ffffffffffffffff811115611499577f4e487b7100000000000000000000000000000000000000000000000000000000600052604160045260246000fd5b6040519080825280602002602001820160405280156114d257816020015b6114bf611cc0565b8152602001906001900390816114b75790505b50905060005b8281101561157857838181518110611519577f4e487b7100000000000000000000000000000000000000000000000000000000600052603260045260246000fd5b602002602001015182828151811061155a577f4e487b7100000000000000000000000000000000000000000000000000000000600052603260045260246000fd5b6020026020010181905250808061157090612729565b9150506114d8565b5080935050505090565b60606000600360008473ffffffffffffffffffffffffffffffffffffffff1673ffffffffffffffffffffffffffffffffffffffff16815260200190815260200160002080548060200260200160405190810160405280929190818152602001828054801561160f57602002820191906000526020600020905b8154815260200190600101908083116115fb575b505050505090506000815167ffffffffffffffff811115611659577f4e487b7100000000000000000000000000000000000000000000000000000000600052604160045260246000fd5b60405190808252806020026020018201604052801561169257816020015b61167f611cc0565b8152602001906001900390816116775790505b5090506000805b83518110156119215760008482815181106116dd577f4e487b7100000000000000000000000000000000000000000000000000000000600052603260045260246000fd5b60200260200101519050600060016000838152602001908152602001600020600601549050816004600083815260200190815260200160002060016004600085815260200190815260200160002080549050611739919061262f565b81548110611770577f4e487b7100000000000000000000000000000000000000000000000000000000600052603260045260246000fd5b9060005260206000200154141561190c57600160008381526020019081526020016000206040518060e001604052908160008201548152602001600182015481526020016002820180546117c3906126f7565b80601f01602080910402602001604051908101604052809291908181526020018280546117ef906126f7565b801561183c5780601f106118115761010080835404028352916020019161183c565b820191906000526020600020905b81548152906001019060200180831161181f57829003601f168201915b50505050508152602001600382015481526020016004820160009054906101000a900473ffffffffffffffffffffffffffffffffffffffff1673ffffffffffffffffffffffffffffffffffffffff1673ffffffffffffffffffffffffffffffffffffffff168152602001600582015481526020016006820154815250508585815181106118f2577f4e487b7100000000000000000000000000000000000000000000000000000000600052603260045260246000fd5b6020026020010181905250838061190890612729565b9450505b5050808061191990612729565b915050611699565b5060008167ffffffffffffffff811115611964577f4e487b7100000000000000000000000000000000000000000000000000000000600052604160045260246000fd5b60405190808252806020026020018201604052801561199d57816020015b61198a611cc0565b8152602001906001900390816119825790505b50905060005b82811015611a43578381815181106119e4577f4e487b7100000000000000000000000000000000000000000000000000000000600052603260045260246000fd5b6020026020010151828281518110611a25577f4e487b7100000000000000000000000000000000000000000000000000000000600052603260045260246000fd5b60200260200101819052508080611a3b90612729565b9150506119a3565b5080945050505050919050565b6060600060028054905067ffffffffffffffff811115611a99577f4e487b7100000000000000000000000000000000000000000000000000000000600052604160045260246000fd5b604051908082528060200260200182016040528015611ad257816020015b611abf611cc0565b815260200190600190039081611ab75790505b50905060005b600280549050811015611cb8576001600060028381548110611b23577f4e487b7100000000000000000000000000000000000000000000000000000000600052603260045260246000fd5b906000526020600020015481526020019081526020016000206040518060e00160405290816000820154815260200160018201548152602001600282018054611b6b906126f7565b80601f0160208091040260200160405190810160405280929190818152602001828054611b97906126f7565b8015611be45780601f10611bb957610100808354040283529160200191611be4565b820191906000526020600020905b815481529060010190602001808311611bc757829003601f168201915b50505050508152602001600382015481526020016004820160009054906101000a900473ffffffffffffffffffffffffffffffffffffffff1673ffffffffffffffffffffffffffffffffffffffff1673ffffffffffffffffffffffffffffffffffffffff16815260200160058201548152602001600682015481525050828281518110611c9a577f4e487b7100000000000000000000000000000000000000000000000000000000600052603260045260246000fd5b60200260200101819052508080611cb090612729565b915050611ad8565b508091505090565b6040518060e0016040528060008152602001600080191681526020016060815260200160008152602001600073ffffffffffffffffffffffffffffffffffffffff16815260200160008152602001600081525090565b828054611d22906126f7565b90600052602060002090601f016020900481019282611d445760008555611d8b565b82601f10611d5d57805160ff1916838001178555611d8b565b82800160010185558215611d8b579182015b82811115611d8a578251825591602001919060010190611d6f565b5b509050611d989190611d9c565b5090565b5b80821115611db5576000816000905550600101611d9d565b5090565b6000611dcc611dc784612543565b612512565b905082815260208101848484011115611de457600080fd5b611def8482856126b5565b509392505050565b600081359050611e0681612810565b92915050565b600081359050611e1b81612827565b92915050565b600082601f830112611e3257600080fd5b8135611e42848260208601611db9565b91505092915050565b600081359050611e5a8161283e565b92915050565b600060208284031215611e7257600080fd5b6000611e8084828501611df7565b91505092915050565b600080600060608486031215611e9e57600080fd5b6000611eac86828701611e0c565b935050602084013567ffffffffffffffff811115611ec957600080fd5b611ed586828701611e21565b9250506040611ee686828701611e4b565b9150509250925092565b600060208284031215611f0257600080fd5b6000611f1084828501611e4b565b91505092915050565b600080600060608486031215611f2e57600080fd5b6000611f3c86828701611e4b565b9350506020611f4d86828701611e0c565b9250506040611f5e86828701611e4b565b9150509250925092565b6000611f74838361223a565b905092915050565b611f8581612663565b82525050565b611f9481612663565b82525050565b6000611fa582612583565b611faf81856125a6565b935083602082028501611fc185612573565b8060005b85811015611ffd5784840389528151611fde8582611f68565b9450611fe983612599565b925060208a01995050600181019050611fc5565b50829750879550505050505092915050565b61201881612675565b82525050565b61202781612681565b82525050565b61203681612681565b82525050565b60006120478261258e565b61205181856125b7565b93506120618185602086016126c4565b61206a816127ff565b840191505092915050565b60006120808261258e565b61208a81856125c8565b935061209a8185602086016126c4565b6120a3816127ff565b840191505092915050565b60006120bb6022836125c8565b91507f46696c6520776974682074686973206861736820616c7265616479206578697360008301527f74730000000000000000000000000000000000000000000000000000000000006020830152604082019050919050565b60006121216013836125c8565b91507f46696c6520646f6573206e6f74206578697374000000000000000000000000006000830152602082019050919050565b60006121616016836125c8565b91507f56657273696f6e20646f6573206e6f74206578697374000000000000000000006000830152602082019050919050565b60006121a16030836125c8565b91507f4f6e6c7920746865206f776e6572206f66207468652066696c652063616e206160008301527f64642061206e65772076657273696f6e000000000000000000000000000000006020830152604082019050919050565b60006122076018836125c8565b91507f426173652066696c6520646f6573206e6f7420657869737400000000000000006000830152602082019050919050565b600060e0830160008301516122526000860182612372565b506020830151612265602086018261201e565b506040830151848203604086015261227d828261203c565b91505060608301516122926060860182612372565b5060808301516122a56080860182611f7c565b5060a08301516122b860a0860182612372565b5060c08301516122cb60c0860182612372565b508091505092915050565b600060e0830160008301516122ee6000860182612372565b506020830151612301602086018261201e565b5060408301518482036040860152612319828261203c565b915050606083015161232e6060860182612372565b5060808301516123416080860182611f7c565b5060a083015161235460a0860182612372565b5060c083015161236760c0860182612372565b508091505092915050565b61237b816126ab565b82525050565b61238a816126ab565b82525050565b600060208201905081810360008301526123aa8184611f9a565b905092915050565b60006020820190506123c7600083018461200f565b92915050565b600060c0820190506123e2600083018961202d565b81810360208301526123f48188612075565b90506124036040830187612381565b6124106060830186611f8b565b61241d6080830185612381565b61242a60a0830184612381565b979650505050505050565b6000602082019050818103600083015261244e816120ae565b9050919050565b6000602082019050818103600083015261246e81612114565b9050919050565b6000602082019050818103600083015261248e81612154565b9050919050565b600060208201905081810360008301526124ae81612194565b9050919050565b600060208201905081810360008301526124ce816121fa565b9050919050565b600060208201905081810360008301526124ef81846122d6565b905092915050565b600060208201905061250c6000830184612381565b92915050565b6000604051905081810181811067ffffffffffffffff82111715612539576125386127d0565b5b8060405250919050565b600067ffffffffffffffff82111561255e5761255d6127d0565b5b601f19601f8301169050602081019050919050565b6000819050602082019050919050565b600081519050919050565b600081519050919050565b6000602082019050919050565b600082825260208201905092915050565b600082825260208201905092915050565b600082825260208201905092915050565b60006125e4826126ab565b91506125ef836126ab565b9250827fffffffffffffffffffffffffffffffffffffffffffffffffffffffffffffffff0382111561262457612623612772565b5b828201905092915050565b600061263a826126ab565b9150612645836126ab565b92508282101561265857612657612772565b5b828203905092915050565b600061266e8261268b565b9050919050565b60008115159050919050565b6000819050919050565b600073ffffffffffffffffffffffffffffffffffffffff82169050919050565b6000819050919050565b82818337600083830152505050565b60005b838110156126e25780820151818401526020810190506126c7565b838111156126f1576000848401525b50505050565b6000600282049050600182168061270f57607f821691505b60208210811415612723576127226127a1565b5b50919050565b6000612734826126ab565b91507fffffffffffffffffffffffffffffffffffffffffffffffffffffffffffffffff82141561276757612766612772565b5b600182019050919050565b7f4e487b7100000000000000000000000000000000000000000000000000000000600052601160045260246000fd5b7f4e487b7100000000000000000000000000000000000000000000000000000000600052602260045260246000fd5b7f4e487b7100000000000000000000000000000000000000000000000000000000600052604160045260246000fd5b6000601f19601f8301169050919050565b61281981612663565b811461282457600080fd5b50565b61283081612681565b811461283b57600080fd5b50565b612847816126ab565b811461285257600080fd5b5056fea26469706673582212203a72fb1d839b77da65f70497dbe73dc8987e730928ec41fbc09a8d7ddeec846164736f6c63430008000033",
  "immutableReferences": {},
  "source": "// SPDX-License-Identifier: MIT\npragma solidity ^0.8.0;\n\ncontract FileRegistry {\n    uint public fileCounter = 0; // Licznik do generowania unikalnych fileID\n\n    // Struktura przechowujca dane o pliku\n    struct File {\n        uint fileId; // Unikalny identyfikator pliku\n        bytes32 fileHash; // Hash pliku (SHA-256)\n        string fileName; // Nazwa pliku\n        uint timestamp; // Data dodania pliku\n        address uploader; // Adres uytkownika, ktry doda plik\n        uint version; // Numer wersji pliku\n        uint baseFileId; // ID bazowego pliku, aby ledzi wersje\n    }\n\n    // Mapowanie ID pliku do jego danych\n    mapping(uint => File) private files;\n\n    // Lista wszystkich fileId w systemie\n    uint[] private allFileIds;\n\n    // Mapowanie adresu uytkownika do listy fileId, ktre doda\n    mapping(address => uint[]) private userFiles;\n\n    // Mapowanie hash bazowego pliku do listy fileId jego wersji\n    mapping(uint => uint[]) private fileVersions;\n\n    // Mapowanie hash do jego ID pliku, aby unikn duplikatw\n    mapping(bytes32 => uint) private fileHashToId;\n\n    // Wydarzenie emitowane przy dodawaniu nowego pliku lub jego wersji\n    event FileAdded(\n        uint indexed fileId,\n        bytes32 fileHash,\n        string fileName,\n        uint timestamp,\n        address uploader,\n        uint version,\n        uint baseFileId\n    );\n\n    /**\n     * @notice Dodaje nowy plik lub now wersj istniejcego pliku\n     * @param fileHash Hash pliku\n     * @param fileName Nazwa pliku\n     * @param baseFileId ID bazowego pliku, jeli jest to nowa wersja; 0 jeli to nowy plik\n     */\n    function addFile(\n        bytes32 fileHash,\n        string memory fileName,\n        uint baseFileId\n    ) public {\n        // Sprawdzenie, czy hash pliku ju istnieje\n        require(\n            fileHashToId[fileHash] == 0,\n            \"File with this hash already exists\"\n        );\n\n        uint fileId = ++fileCounter; // Generowanie nowego unikalnego fileID\n        uint timestamp = block.timestamp;\n        uint version = 1; // Domylnie wersja 1 dla nowego pliku\n\n        // Jeli jest to nowa wersja istniejcego pliku, pobieramy numer wersji\n        if (baseFileId != 0) {\n            require(\n                files[baseFileId].fileId == baseFileId,\n                \"Base file does not exist\"\n            );\n            require(\n                files[baseFileId].uploader == msg.sender,\n                \"Only the owner of the file can add a new version\"\n            );\n            version =\n                files[\n                    fileVersions[baseFileId][\n                        fileVersions[baseFileId].length - 1\n                    ]\n                ].version +\n                1;\n        } else {\n            baseFileId = fileId; // Jeli to nowy plik, ustawiamy jego wasne ID jako bazowe\n        }\n\n        // Tworzenie nowego pliku (lub wersji) i zapisywanie go w mapowaniu\n        files[fileId] = File({\n            fileId: fileId,\n            fileHash: fileHash,\n            fileName: fileName,\n            timestamp: timestamp,\n            uploader: msg.sender,\n            version: version,\n            baseFileId: baseFileId\n        });\n\n        // Dodanie fileId do listy wszystkich plikw, do plikw uytkownika i do wersji bazowego pliku\n        allFileIds.push(fileId);\n        userFiles[msg.sender].push(fileId);\n        fileVersions[baseFileId].push(fileId);\n\n        // Mapa hash do ID pliku\n        fileHashToId[fileHash] = fileId;\n\n        // Emitowanie wydarzenia przy dodaniu pliku lub jego wersji\n        emit FileAdded(\n            fileId,\n            fileHash,\n            fileName,\n            timestamp,\n            msg.sender,\n            version,\n            baseFileId\n        );\n    }\n\n    /**\n     * @notice Pobiera dane pliku na podstawie jego ID\n     * @param fileId Unikalny identyfikator pliku\n     * @return Dane pliku\n     */\n    function getFile(uint fileId) public view returns (File memory) {\n        require(files[fileId].fileId == fileId, \"File does not exist\");\n        return files[fileId];\n    }\n\n    /**\n     * @notice Pobiera wszystkie pliki w rejestrze\n     * @return Lista wszystkich plikw\n     */\n    function getAllFiles() public view returns (File[] memory) {\n        File[] memory allFiles = new File[](allFileIds.length);\n        for (uint i = 0; i < allFileIds.length; i++) {\n            allFiles[i] = files[allFileIds[i]];\n        }\n        return allFiles;\n    }\n    /**\n     * @notice Pobiera najnowsz wersj kadego pliku\n     * @return Lista najnowszych wersji plikw\n     */\n    function getLatestFiles() public view returns (File[] memory) {\n        // Przygotowanie tablicy do przechowywania najnowszych wersji plikw\n        File[] memory latestFiles = new File[](allFileIds.length);\n        uint latestCount = 0;\n\n        // Iteracja przez wszystkie fileIds, aby znale najnowsze wersje\n        for (uint i = 0; i < allFileIds.length; i++) {\n            uint baseFileId = files[allFileIds[i]].baseFileId;\n\n            // Jeli to jest ostatnia wersja pliku bazowego, dodajemy go do listy\n            if (\n                fileVersions[baseFileId][fileVersions[baseFileId].length - 1] ==\n                allFileIds[i]\n            ) {\n                latestFiles[latestCount] = files[allFileIds[i]];\n                latestCount++;\n            }\n        }\n\n        // Dopasowanie rozmiaru tablicy, aby zawieraa tylko najnowsze wersje\n        File[] memory result = new File[](latestCount);\n        for (uint j = 0; j < latestCount; j++) {\n            result[j] = latestFiles[j];\n        }\n\n        return result;\n    }\n    /**\n     * @notice Pobiera najnowsz wersj kadego pliku przesanego przez konkretnego uytkownika\n     * @param user Adres uytkownika\n     * @return Lista najnowszych wersji plikw przesanych przez uytkownika\n     */\n    function getLatestFilesByUser(\n        address user\n    ) public view returns (File[] memory) {\n        // Pobranie listy plikw dodanych przez uytkownika\n        uint[] memory userFileIds = userFiles[user];\n\n        // Przygotowanie tablicy do przechowywania najnowszych wersji plikw uytkownika\n        File[] memory latestUserFiles = new File[](userFileIds.length);\n        uint latestCount = 0;\n\n        // Iteracja przez wszystkie pliki dodane przez uytkownika\n        for (uint i = 0; i < userFileIds.length; i++) {\n            uint fileId = userFileIds[i];\n            uint baseFileId = files[fileId].baseFileId;\n\n            // Jeli to jest ostatnia wersja pliku bazowego, dodajemy go do listy\n            if (\n                fileVersions[baseFileId][fileVersions[baseFileId].length - 1] ==\n                fileId\n            ) {\n                latestUserFiles[latestCount] = files[fileId];\n                latestCount++;\n            }\n        }\n\n        // Dopasowanie rozmiaru tablicy, aby zawieraa tylko najnowsze wersje plikw uytkownika\n        File[] memory result = new File[](latestCount);\n        for (uint j = 0; j < latestCount; j++) {\n            result[j] = latestUserFiles[j];\n        }\n\n        return result;\n    }\n\n    /**\n     * @notice Pobiera wszystkie pliki przesane przez konkretnego uytkownika\n     * @param user Adres uytkownika\n     * @return Lista plikw przesanych przez danego uytkownika\n     */\n    function getUserFiles(address user) public view returns (File[] memory) {\n        uint[] memory userFileIds = userFiles[user];\n        File[] memory userFilesList = new File[](userFileIds.length);\n        for (uint i = 0; i < userFileIds.length; i++) {\n            userFilesList[i] = files[userFileIds[i]];\n        }\n        return userFilesList;\n    }\n\n    /**\n     * @notice Weryfikuje, czy podany hash odpowiada konkretnej wersji pliku\n     * @param fileId Unikalny identyfikator pliku\n     * @param fileHash Hash do weryfikacji\n     * @param version Numer wersji do weryfikacji\n     * @return Zwraca true, jeli wersja pliku o podanym ID i hashu istnieje, w przeciwnym razie false\n     */\n    function verifySpecificVersion(\n        uint fileId,\n        bytes32 fileHash,\n        uint version\n    ) public view returns (bool) {\n        require(files[fileId].fileId == fileId, \"File does not exist\");\n        require(files[fileId].version >= version, \"Version does not exist\");\n\n        // Sprawdzenie, czy hash pliku zgadza si z podanym hashem dla danej wersji\n        if (\n            files[fileId].fileHash == fileHash &&\n            files[fileId].version == version\n        ) {\n            return true; // Hash i wersja zgadzaj si\n        }\n\n        // Dla wersji bazowej, iterujemy przez wersje, aby znale zgodno\n        uint[] memory versionIds = fileVersions[files[fileId].baseFileId];\n        for (uint i = 0; i < versionIds.length; i++) {\n            if (\n                versionIds[i] == fileId &&\n                files[versionIds[i]].fileHash == fileHash &&\n                files[versionIds[i]].version == version\n            ) {\n                return true; // Zgodno hasha i wersji pliku\n            }\n        }\n\n        return false; // Brak zgodnoci\n    }\n\n    /**\n     * @notice Pobiera wszystkie wersje pliku na podstawie jego bazowego ID\n     * @param baseFileId Unikalny identyfikator bazowego pliku\n     * @return Lista wersji pliku\n     */\n    function getFileVersions(\n        uint baseFileId\n    ) public view returns (File[] memory) {\n        require(\n            files[baseFileId].fileId == baseFileId,\n            \"Base file does not exist\"\n        );\n\n        uint[] memory versionIds = fileVersions[baseFileId];\n        File[] memory versions = new File[](versionIds.length);\n\n        for (uint i = 0; i < versionIds.length; i++) {\n            versions[i] = files[versionIds[i]];\n        }\n\n        return versions;\n    }\n}\n",
  "sourcePath": "/Users/michalpozdal/Desktop/studia/CertifyLite/src/contracts/FileRegistry.sol",
  "compiler": {
    "name": "solc",
    "version": "0.8.0+commit.c7dfd78e.Emscripten.clang"
  },
  "schemaVersion": "3.4.16",
  "updatedAt": "2024-11-06T23:15:01.072Z",
  "networkType": "ethereum",
  "devdoc": {
    "kind": "dev",
    "methods": {
      "addFile(bytes32,string,uint256)": {
        "params": {
          "baseFileId": "ID bazowego pliku, jeli jest to nowa wersja; 0 jeli to nowy plik",
          "fileHash": "Hash pliku",
          "fileName": "Nazwa pliku"
        }
      },
      "getAllFiles()": {
        "returns": {
          "_0": "Lista wszystkich plikw"
        }
      },
      "getFile(uint256)": {
        "params": {
          "fileId": "Unikalny identyfikator pliku"
        },
        "returns": {
          "_0": "Dane pliku"
        }
      },
      "getFileVersions(uint256)": {
        "params": {
          "baseFileId": "Unikalny identyfikator bazowego pliku"
        },
        "returns": {
          "_0": "Lista wersji pliku"
        }
      },
      "getLatestFiles()": {
        "returns": {
          "_0": "Lista najnowszych wersji plikw"
        }
      },
      "getLatestFilesByUser(address)": {
        "params": {
          "user": "Adres uytkownika"
        },
        "returns": {
          "_0": "Lista najnowszych wersji plikw przesanych przez uytkownika"
        }
      },
      "getUserFiles(address)": {
        "params": {
          "user": "Adres uytkownika"
        },
        "returns": {
          "_0": "Lista plikw przesanych przez danego uytkownika"
        }
      },
      "verifySpecificVersion(uint256,bytes32,uint256)": {
        "params": {
          "fileHash": "Hash do weryfikacji",
          "fileId": "Unikalny identyfikator pliku",
          "version": "Numer wersji do weryfikacji"
        },
        "returns": {
          "_0": "Zwraca true, jeli wersja pliku o podanym ID i hashu istnieje, w przeciwnym razie false"
        }
      }
    },
    "version": 1
  },
  "userdoc": {
    "kind": "user",
    "methods": {
      "addFile(bytes32,string,uint256)": {
        "notice": "Dodaje nowy plik lub now wersj istniejcego pliku"
      },
      "getAllFiles()": {
        "notice": "Pobiera wszystkie pliki w rejestrze"
      },
      "getFile(uint256)": {
        "notice": "Pobiera dane pliku na podstawie jego ID"
      },
      "getFileVersions(uint256)": {
        "notice": "Pobiera wszystkie wersje pliku na podstawie jego bazowego ID"
      },
      "getLatestFiles()": {
        "notice": "Pobiera najnowsz wersj kadego pliku"
      },
      "getLatestFilesByUser(address)": {
        "notice": "Pobiera najnowsz wersj kadego pliku przesanego przez konkretnego uytkownika"
      },
      "getUserFiles(address)": {
        "notice": "Pobiera wszystkie pliki przesane przez konkretnego uytkownika"
      },
      "verifySpecificVersion(uint256,bytes32,uint256)": {
        "notice": "Weryfikuje, czy podany hash odpowiada konkretnej wersji pliku"
      }
    },
    "version": 1
  }
}