{
  "contractName": "FileRegistry",
  "abi": [
    {
      "anonymous": false,
      "inputs": [
        {
          "indexed": true,
          "internalType": "uint256",
          "name": "fileId",
          "type": "uint256"
        },
        {
          "indexed": false,
          "internalType": "bytes32",
          "name": "fileHash",
          "type": "bytes32"
        },
        {
          "indexed": false,
          "internalType": "string",
          "name": "fileName",
          "type": "string"
        },
        {
          "indexed": false,
          "internalType": "uint256",
          "name": "timestamp",
          "type": "uint256"
        },
        {
          "indexed": false,
          "internalType": "address",
          "name": "uploader",
          "type": "address"
        }
      ],
      "name": "FileAdded",
      "type": "event"
    },
    {
      "inputs": [],
      "name": "fileCounter",
      "outputs": [
        {
          "internalType": "uint256",
          "name": "",
          "type": "uint256"
        }
      ],
      "stateMutability": "view",
      "type": "function",
      "constant": true
    },
    {
      "inputs": [
        {
          "internalType": "bytes32",
          "name": "fileHash",
          "type": "bytes32"
        },
        {
          "internalType": "string",
          "name": "fileName",
          "type": "string"
        }
      ],
      "name": "addFile",
      "outputs": [],
      "stateMutability": "nonpayable",
      "type": "function"
    },
    {
      "inputs": [
        {
          "internalType": "uint256",
          "name": "fileId",
          "type": "uint256"
        }
      ],
      "name": "getFile",
      "outputs": [
        {
          "components": [
            {
              "internalType": "uint256",
              "name": "fileId",
              "type": "uint256"
            },
            {
              "internalType": "bytes32",
              "name": "fileHash",
              "type": "bytes32"
            },
            {
              "internalType": "string",
              "name": "fileName",
              "type": "string"
            },
            {
              "internalType": "uint256",
              "name": "timestamp",
              "type": "uint256"
            },
            {
              "internalType": "address",
              "name": "uploader",
              "type": "address"
            }
          ],
          "internalType": "struct FileRegistry.File",
          "name": "",
          "type": "tuple"
        }
      ],
      "stateMutability": "view",
      "type": "function",
      "constant": true
    },
    {
      "inputs": [],
      "name": "getAllFiles",
      "outputs": [
        {
          "components": [
            {
              "internalType": "uint256",
              "name": "fileId",
              "type": "uint256"
            },
            {
              "internalType": "bytes32",
              "name": "fileHash",
              "type": "bytes32"
            },
            {
              "internalType": "string",
              "name": "fileName",
              "type": "string"
            },
            {
              "internalType": "uint256",
              "name": "timestamp",
              "type": "uint256"
            },
            {
              "internalType": "address",
              "name": "uploader",
              "type": "address"
            }
          ],
          "internalType": "struct FileRegistry.File[]",
          "name": "",
          "type": "tuple[]"
        }
      ],
      "stateMutability": "view",
      "type": "function",
      "constant": true
    },
    {
      "inputs": [
        {
          "internalType": "address",
          "name": "user",
          "type": "address"
        }
      ],
      "name": "getUserFiles",
      "outputs": [
        {
          "components": [
            {
              "internalType": "uint256",
              "name": "fileId",
              "type": "uint256"
            },
            {
              "internalType": "bytes32",
              "name": "fileHash",
              "type": "bytes32"
            },
            {
              "internalType": "string",
              "name": "fileName",
              "type": "string"
            },
            {
              "internalType": "uint256",
              "name": "timestamp",
              "type": "uint256"
            },
            {
              "internalType": "address",
              "name": "uploader",
              "type": "address"
            }
          ],
          "internalType": "struct FileRegistry.File[]",
          "name": "",
          "type": "tuple[]"
        }
      ],
      "stateMutability": "view",
      "type": "function",
      "constant": true
    },
    {
      "inputs": [
        {
          "internalType": "bytes32",
          "name": "fileHash",
          "type": "bytes32"
        }
      ],
      "name": "verifyFile",
      "outputs": [
        {
          "internalType": "bool",
          "name": "",
          "type": "bool"
        }
      ],
      "stateMutability": "view",
      "type": "function",
      "constant": true
    }
  ],
  "bytecode": "0x60806040526000805534801561001457600080fd5b5061134d806100246000396000f3fe608060405234801561001057600080fd5b50600436106100625760003560e01c80631fc37922146100675780632bfda313146100975780634b67d54b146100c7578063817959f7146100f7578063f61ac3e414610115578063ff24b5d514610131575b600080fd5b610081600480360381019061007c9190610c19565b61014f565b60405161008e9190610f78565b60405180910390f35b6100b160048036038101906100ac9190610cbf565b610434565b6040516100be9190611021565b60405180910390f35b6100e160048036038101906100dc9190610c42565b6105bf565b6040516100ee9190610f9a565b60405180910390f35b6100ff61065e565b60405161010c9190611043565b60405180910390f35b61012f600480360381019061012a9190610c6b565b610664565b005b61013961082b565b6040516101469190610f78565b60405180910390f35b60606000600360008473ffffffffffffffffffffffffffffffffffffffff1673ffffffffffffffffffffffffffffffffffffffff1681526020019081526020016000208054806020026020016040519081016040528092919081815260200182805480156101dc57602002820191906000526020600020905b8154815260200190600101908083116101c8575b505050505090506000815167ffffffffffffffff811115610226577f4e487b7100000000000000000000000000000000000000000000000000000000600052604160045260246000fd5b60405190808252806020026020018201604052801561025f57816020015b61024c610a87565b8152602001906001900390816102445790505b50905060005b825181101561042957600160008483815181106102ab577f4e487b7100000000000000000000000000000000000000000000000000000000600052603260045260246000fd5b602002602001015181526020019081526020016000206040518060a001604052908160008201548152602001600182015481526020016002820180546102f0906111b9565b80601f016020809104026020016040519081016040528092919081815260200182805461031c906111b9565b80156103695780601f1061033e57610100808354040283529160200191610369565b820191906000526020600020905b81548152906001019060200180831161034c57829003601f168201915b50505050508152602001600382015481526020016004820160009054906101000a900473ffffffffffffffffffffffffffffffffffffffff1673ffffffffffffffffffffffffffffffffffffffff1673ffffffffffffffffffffffffffffffffffffffff168152505082828151811061040b577f4e487b7100000000000000000000000000000000000000000000000000000000600052603260045260246000fd5b60200260200101819052508080610421906111eb565b915050610265565b508092505050919050565b61043c610a87565b81600160008481526020019081526020016000206000015414610494576040517f08c379a000000000000000000000000000000000000000000000000000000000815260040161048b90611001565b60405180910390fd5b600160008381526020019081526020016000206040518060a001604052908160008201548152602001600182015481526020016002820180546104d6906111b9565b80601f0160208091040260200160405190810160405280929190818152602001828054610502906111b9565b801561054f5780601f106105245761010080835404028352916020019161054f565b820191906000526020600020905b81548152906001019060200180831161053257829003601f168201915b50505050508152602001600382015481526020016004820160009054906101000a900473ffffffffffffffffffffffffffffffffffffffff1673ffffffffffffffffffffffffffffffffffffffff1673ffffffffffffffffffffffffffffffffffffffff16815250509050919050565b600080600090505b60028054905081101561065357826001600060028481548110610613577f4e487b7100000000000000000000000000000000000000000000000000000000600052603260045260246000fd5b90600052602060002001548152602001908152602001600020600101541415610640576001915050610659565b808061064b906111eb565b9150506105c7565b50600090505b919050565b60005481565b6000806000815480929190610678906111eb565b91905055905060004290506040518060a001604052808381526020018581526020018481526020018281526020013373ffffffffffffffffffffffffffffffffffffffff168152506001600084815260200190815260200160002060008201518160000155602082015181600101556040820151816002019080519060200190610703929190610acf565b506060820151816003015560808201518160040160006101000a81548173ffffffffffffffffffffffffffffffffffffffff021916908373ffffffffffffffffffffffffffffffffffffffff1602179055509050506002829080600181540180825580915050600190039060005260206000200160009091909190915055600360003373ffffffffffffffffffffffffffffffffffffffff1673ffffffffffffffffffffffffffffffffffffffff168152602001908152602001600020829080600181540180825580915050600190039060005260206000200160009091909190915055817f510831bb0852b572295e1f1d0497be34cdc7fc0b88bb3295dd282781da4550568585843360405161081d9493929190610fb5565b60405180910390a250505050565b6060600060028054905067ffffffffffffffff811115610874577f4e487b7100000000000000000000000000000000000000000000000000000000600052604160045260246000fd5b6040519080825280602002602001820160405280156108ad57816020015b61089a610a87565b8152602001906001900390816108925790505b50905060005b600280549050811015610a7f5760016000600283815481106108fe577f4e487b7100000000000000000000000000000000000000000000000000000000600052603260045260246000fd5b906000526020600020015481526020019081526020016000206040518060a00160405290816000820154815260200160018201548152602001600282018054610946906111b9565b80601f0160208091040260200160405190810160405280929190818152602001828054610972906111b9565b80156109bf5780601f10610994576101008083540402835291602001916109bf565b820191906000526020600020905b8154815290600101906020018083116109a257829003601f168201915b50505050508152602001600382015481526020016004820160009054906101000a900473ffffffffffffffffffffffffffffffffffffffff1673ffffffffffffffffffffffffffffffffffffffff1673ffffffffffffffffffffffffffffffffffffffff1681525050828281518110610a61577f4e487b7100000000000000000000000000000000000000000000000000000000600052603260045260246000fd5b60200260200101819052508080610a77906111eb565b9150506108b3565b508091505090565b6040518060a0016040528060008152602001600080191681526020016060815260200160008152602001600073ffffffffffffffffffffffffffffffffffffffff1681525090565b828054610adb906111b9565b90600052602060002090601f016020900481019282610afd5760008555610b44565b82601f10610b1657805160ff1916838001178555610b44565b82800160010185558215610b44579182015b82811115610b43578251825591602001919060010190610b28565b5b509050610b519190610b55565b5090565b5b80821115610b6e576000816000905550600101610b56565b5090565b6000610b85610b808461108f565b61105e565b905082815260208101848484011115610b9d57600080fd5b610ba8848285611177565b509392505050565b600081359050610bbf816112d2565b92915050565b600081359050610bd4816112e9565b92915050565b600082601f830112610beb57600080fd5b8135610bfb848260208601610b72565b91505092915050565b600081359050610c1381611300565b92915050565b600060208284031215610c2b57600080fd5b6000610c3984828501610bb0565b91505092915050565b600060208284031215610c5457600080fd5b6000610c6284828501610bc5565b91505092915050565b60008060408385031215610c7e57600080fd5b6000610c8c85828601610bc5565b925050602083013567ffffffffffffffff811115610ca957600080fd5b610cb585828601610bda565b9150509250929050565b600060208284031215610cd157600080fd5b6000610cdf84828501610c04565b91505092915050565b6000610cf48383610e6e565b905092915050565b610d0581611125565b82525050565b610d1481611125565b82525050565b6000610d25826110cf565b610d2f81856110f2565b935083602082028501610d41856110bf565b8060005b85811015610d7d5784840389528151610d5e8582610ce8565b9450610d69836110e5565b925060208a01995050600181019050610d45565b50829750879550505050505092915050565b610d9881611137565b82525050565b610da781611143565b82525050565b610db681611143565b82525050565b6000610dc7826110da565b610dd18185611103565b9350610de1818560208601611186565b610dea816112c1565b840191505092915050565b6000610e00826110da565b610e0a8185611114565b9350610e1a818560208601611186565b610e23816112c1565b840191505092915050565b6000610e3b601383611114565b91507f46696c6520646f6573206e6f74206578697374000000000000000000000000006000830152602082019050919050565b600060a083016000830151610e866000860182610f5a565b506020830151610e996020860182610d9e565b5060408301518482036040860152610eb18282610dbc565b9150506060830151610ec66060860182610f5a565b506080830151610ed96080860182610cfc565b508091505092915050565b600060a083016000830151610efc6000860182610f5a565b506020830151610f0f6020860182610d9e565b5060408301518482036040860152610f278282610dbc565b9150506060830151610f3c6060860182610f5a565b506080830151610f4f6080860182610cfc565b508091505092915050565b610f638161116d565b82525050565b610f728161116d565b82525050565b60006020820190508181036000830152610f928184610d1a565b905092915050565b6000602082019050610faf6000830184610d8f565b92915050565b6000608082019050610fca6000830187610dad565b8181036020830152610fdc8186610df5565b9050610feb6040830185610f69565b610ff86060830184610d0b565b95945050505050565b6000602082019050818103600083015261101a81610e2e565b9050919050565b6000602082019050818103600083015261103b8184610ee4565b905092915050565b60006020820190506110586000830184610f69565b92915050565b6000604051905081810181811067ffffffffffffffff8211171561108557611084611292565b5b8060405250919050565b600067ffffffffffffffff8211156110aa576110a9611292565b5b601f19601f8301169050602081019050919050565b6000819050602082019050919050565b600081519050919050565b600081519050919050565b6000602082019050919050565b600082825260208201905092915050565b600082825260208201905092915050565b600082825260208201905092915050565b60006111308261114d565b9050919050565b60008115159050919050565b6000819050919050565b600073ffffffffffffffffffffffffffffffffffffffff82169050919050565b6000819050919050565b82818337600083830152505050565b60005b838110156111a4578082015181840152602081019050611189565b838111156111b3576000848401525b50505050565b600060028204905060018216806111d157607f821691505b602082108114156111e5576111e4611263565b5b50919050565b60006111f68261116d565b91507fffffffffffffffffffffffffffffffffffffffffffffffffffffffffffffffff82141561122957611228611234565b5b600182019050919050565b7f4e487b7100000000000000000000000000000000000000000000000000000000600052601160045260246000fd5b7f4e487b7100000000000000000000000000000000000000000000000000000000600052602260045260246000fd5b7f4e487b7100000000000000000000000000000000000000000000000000000000600052604160045260246000fd5b6000601f19601f8301169050919050565b6112db81611125565b81146112e657600080fd5b50565b6112f281611143565b81146112fd57600080fd5b50565b6113098161116d565b811461131457600080fd5b5056fea264697066735822122031a2e04a7ba4d4ac49444abe6ea12ee64256726650fc5c2e563ab06ecedd08f664736f6c63430008000033",
  "immutableReferences": {},
  "source": "// SPDX-License-Identifier: MIT\npragma solidity ^0.8.0;\n\ncontract FileRegistry {\n    uint public fileCounter = 0; // Licznik do generowania unikalnych fileID\n\n    // Struktura przechowujca dane o pliku\n    struct File {\n        uint fileId; // Unikalny identyfikator pliku\n        bytes32 fileHash; // Hash pliku (np. SHA-256)\n        string fileName; // Nazwa pliku\n        uint timestamp; // Data dodania pliku\n        address uploader; // Adres uytkownika, ktry doda plik\n    }\n\n    // Mapowanie ID pliku do jego danych\n    mapping(uint => File) private files;\n\n    // Lista wszystkich fileId w systemie\n    uint[] private allFileIds;\n\n    // Mapowanie adresu uytkownika do listy fileId, ktre doda\n    mapping(address => uint[]) private userFiles;\n\n    // Wydarzenie emitowane przy dodawaniu nowego pliku\n    event FileAdded(\n        uint indexed fileId,\n        bytes32 fileHash,\n        string fileName,\n        uint timestamp,\n        address uploader\n    );\n\n    /**\n     * @notice Dodaje nowy plik do rejestru\n     * @param fileHash Hash pliku\n     * @param fileName Nazwa pliku\n     */\n    function addFile(bytes32 fileHash, string memory fileName) public {\n        uint fileId = fileCounter++; // Generowanie nowego unikalnego fileID\n        uint timestamp = block.timestamp;\n\n        // Tworzenie nowego pliku i zapisywanie go w mapowaniu\n        files[fileId] = File({\n            fileId: fileId,\n            fileHash: fileHash,\n            fileName: fileName,\n            timestamp: timestamp,\n            uploader: msg.sender\n        });\n\n        // Dodanie fileId do listy wszystkich plikw i do plikw uytkownika\n        allFileIds.push(fileId);\n        userFiles[msg.sender].push(fileId);\n\n        // Emitowanie wydarzenia przy dodaniu pliku\n        emit FileAdded(fileId, fileHash, fileName, timestamp, msg.sender);\n    }\n\n    /**\n     * @notice Pobiera dane pliku na podstawie jego ID\n     * @param fileId Unikalny identyfikator pliku\n     * @return Dane pliku\n     */\n    function getFile(uint fileId) public view returns (File memory) {\n        require(files[fileId].fileId == fileId, \"File does not exist\");\n        return files[fileId];\n    }\n\n    /**\n     * @notice Pobiera wszystkie pliki w rejestrze\n     * @return Lista wszystkich plikw\n     */\n    function getAllFiles() public view returns (File[] memory) {\n        // Tworzymy tablic, aby pomieci wszystkie pliki\n        File[] memory allFiles = new File[](allFileIds.length);\n\n        // Kopiujemy dane plikw z mapowania do tablicy\n        for (uint i = 0; i < allFileIds.length; i++) {\n            allFiles[i] = files[allFileIds[i]];\n        }\n\n        return allFiles;\n    }\n\n    /**\n     * @notice Pobiera wszystkie pliki przesane przez konkretnego uytkownika\n     * @param user Adres uytkownika\n     * @return Lista plikw przesanych przez danego uytkownika\n     */\n    function getUserFiles(address user) public view returns (File[] memory) {\n        uint[] memory userFileIds = userFiles[user];\n        File[] memory userFilesList = new File[](userFileIds.length);\n\n        // Kopiujemy dane plikw uytkownika do nowej tablicy\n        for (uint i = 0; i < userFileIds.length; i++) {\n            userFilesList[i] = files[userFileIds[i]];\n        }\n\n        return userFilesList;\n    }\n\n    /**\n     * @notice Weryfikuje, czy podany hash odpowiada istniejcemu plikowi\n     * @param fileHash Hash do weryfikacji\n     * @return Zwraca true, jeli plik o podanym hashu istnieje, w przeciwnym razie false\n     */\n    function verifyFile(bytes32 fileHash) public view returns (bool) {\n        for (uint i = 0; i < allFileIds.length; i++) {\n            if (files[allFileIds[i]].fileHash == fileHash) {\n                return true; // Zgodno hasha - plik zosta zweryfikowany\n            }\n        }\n\n        return false; // Brak zgodnoci - plik nie istnieje w rejestrze\n    }\n}\n",
  "sourcePath": "/Users/michalpozdal/Desktop/studia/CertifyLite/src/contracts/FileRegistry.sol",
  "compiler": {
    "name": "solc",
    "version": "0.8.0+commit.c7dfd78e.Emscripten.clang"
  },
  "schemaVersion": "3.4.16",
  "updatedAt": "2024-11-03T21:10:15.913Z",
  "networkType": "ethereum",
  "devdoc": {
    "kind": "dev",
    "methods": {
      "addFile(bytes32,string)": {
        "params": {
          "fileHash": "Hash pliku",
          "fileName": "Nazwa pliku"
        }
      },
      "getAllFiles()": {
        "returns": {
          "_0": "Lista wszystkich plikw"
        }
      },
      "getFile(uint256)": {
        "params": {
          "fileId": "Unikalny identyfikator pliku"
        },
        "returns": {
          "_0": "Dane pliku"
        }
      },
      "getUserFiles(address)": {
        "params": {
          "user": "Adres uytkownika"
        },
        "returns": {
          "_0": "Lista plikw przesanych przez danego uytkownika"
        }
      },
      "verifyFile(bytes32)": {
        "params": {
          "fileHash": "Hash do weryfikacji"
        },
        "returns": {
          "_0": "Zwraca true, jeli plik o podanym hashu istnieje, w przeciwnym razie false"
        }
      }
    },
    "version": 1
  },
  "userdoc": {
    "kind": "user",
    "methods": {
      "addFile(bytes32,string)": {
        "notice": "Dodaje nowy plik do rejestru"
      },
      "getAllFiles()": {
        "notice": "Pobiera wszystkie pliki w rejestrze"
      },
      "getFile(uint256)": {
        "notice": "Pobiera dane pliku na podstawie jego ID"
      },
      "getUserFiles(address)": {
        "notice": "Pobiera wszystkie pliki przesane przez konkretnego uytkownika"
      },
      "verifyFile(bytes32)": {
        "notice": "Weryfikuje, czy podany hash odpowiada istniejcemu plikowi"
      }
    },
    "version": 1
  }
}