{
  "contractName": "FileRegistry",
  "abi": [
    {
      "inputs": [
        {
          "internalType": "bytes32",
          "name": "",
          "type": "bytes32"
        }
      ],
      "name": "fileHashes",
      "outputs": [
        {
          "internalType": "bool",
          "name": "",
          "type": "bool"
        }
      ],
      "stateMutability": "view",
      "type": "function",
      "constant": true
    },
    {
      "inputs": [
        {
          "internalType": "address",
          "name": "",
          "type": "address"
        },
        {
          "internalType": "uint256",
          "name": "",
          "type": "uint256"
        }
      ],
      "name": "userHashes",
      "outputs": [
        {
          "internalType": "bytes32",
          "name": "",
          "type": "bytes32"
        }
      ],
      "stateMutability": "view",
      "type": "function",
      "constant": true
    },
    {
      "inputs": [
        {
          "internalType": "bytes32",
          "name": "fileHash",
          "type": "bytes32"
        }
      ],
      "name": "storeFileHash",
      "outputs": [],
      "stateMutability": "nonpayable",
      "type": "function"
    },
    {
      "inputs": [
        {
          "internalType": "bytes32",
          "name": "fileHash",
          "type": "bytes32"
        }
      ],
      "name": "verifyFileHash",
      "outputs": [
        {
          "internalType": "bool",
          "name": "",
          "type": "bool"
        }
      ],
      "stateMutability": "view",
      "type": "function",
      "constant": true
    },
    {
      "inputs": [],
      "name": "getUserHashes",
      "outputs": [
        {
          "internalType": "bytes32[]",
          "name": "",
          "type": "bytes32[]"
        }
      ],
      "stateMutability": "view",
      "type": "function",
      "constant": true
    }
  ],
  "bytecode": "0x608060405234801561001057600080fd5b5061063f806100206000396000f3fe608060405234801561001057600080fd5b50600436106100575760003560e01c806302fe503b1461005c5780631e2bdade1461007a57806366bb9a8c146100aa578063a5c2d6cd146100da578063cf4df59e1461010a575b600080fd5b610064610126565b60405161007191906104b0565b60405180910390f35b610094600480360381019061008f91906103a4565b6101bb565b6040516100a191906104d2565b60405180910390f35b6100c460048036038101906100bf91906103a4565b6101e4565b6040516100d191906104d2565b60405180910390f35b6100f460048036038101906100ef9190610368565b610204565b60405161010191906104ed565b60405180910390f35b610124600480360381019061011f91906103a4565b610235565b005b6060600160003373ffffffffffffffffffffffffffffffffffffffff1673ffffffffffffffffffffffffffffffffffffffff1681526020019081526020016000208054806020026020016040519081016040528092919081815260200182805480156101b157602002820191906000526020600020905b81548152602001906001019080831161019d575b5050505050905090565b600080600083815260200190815260200160002060009054906101000a900460ff169050919050565b60006020528060005260406000206000915054906101000a900460ff1681565b6001602052816000526040600020818154811061022057600080fd5b90600052602060002001600091509150505481565b60008082815260200190815260200160002060009054906101000a900460ff1615610295576040517f08c379a000000000000000000000000000000000000000000000000000000000815260040161028c90610508565b60405180910390fd5b600160008083815260200190815260200160002060006101000a81548160ff021916908315150217905550600160003373ffffffffffffffffffffffffffffffffffffffff1673ffffffffffffffffffffffffffffffffffffffff16815260200190815260200160002081908060018154018082558091505060019003906000526020600020016000909190919091505550565b600081359050610338816105c4565b92915050565b60008135905061034d816105db565b92915050565b600081359050610362816105f2565b92915050565b6000806040838503121561037b57600080fd5b600061038985828601610329565b925050602061039a85828601610353565b9150509250929050565b6000602082840312156103b657600080fd5b60006103c48482850161033e565b91505092915050565b60006103d98383610452565b60208301905092915050565b60006103f082610538565b6103fa8185610550565b935061040583610528565b8060005b8381101561043657815161041d88826103cd565b975061042883610543565b925050600181019050610409565b5085935050505092915050565b61044c81610584565b82525050565b61045b81610590565b82525050565b61046a81610590565b82525050565b600061047d601483610561565b91507f4861736820616c7265616479206578697374732e0000000000000000000000006000830152602082019050919050565b600060208201905081810360008301526104ca81846103e5565b905092915050565b60006020820190506104e76000830184610443565b92915050565b60006020820190506105026000830184610461565b92915050565b6000602082019050818103600083015261052181610470565b9050919050565b6000819050602082019050919050565b600081519050919050565b6000602082019050919050565b600082825260208201905092915050565b600082825260208201905092915050565b600061057d8261059a565b9050919050565b60008115159050919050565b6000819050919050565b600073ffffffffffffffffffffffffffffffffffffffff82169050919050565b6000819050919050565b6105cd81610572565b81146105d857600080fd5b50565b6105e481610590565b81146105ef57600080fd5b50565b6105fb816105ba565b811461060657600080fd5b5056fea2646970667358221220ddb4c641dd73f79b6a1eea1101e7480dd1d772e5ae3e15c4095fa101cd7bdf5c64736f6c63430008000033",
  "immutableReferences": {},
  "source": "pragma solidity ^0.8.0;\n\ncontract FileRegistry {\n    mapping(bytes32 => bool) public fileHashes;\n    mapping(address => bytes32[]) public userHashes;\n\n    function storeFileHash(bytes32 fileHash) public {\n        require(!fileHashes[fileHash], \"Hash already exists.\");\n        fileHashes[fileHash] = true;\n        userHashes[msg.sender].push(fileHash);\n    }\n\n    function verifyFileHash(bytes32 fileHash) public view returns (bool) {\n        return fileHashes[fileHash];\n    }\n\n    function getUserHashes() public view returns (bytes32[] memory) {\n        return userHashes[msg.sender]; \n    }\n    \n}\n",
  "sourcePath": "/Users/michalpozdal/Desktop/studia/CertifyLite/src/contracts/FileRegistry.sol",
  "compiler": {
    "name": "solc",
    "version": "0.8.0+commit.c7dfd78e.Emscripten.clang"
  },
  "schemaVersion": "3.4.16",
  "updatedAt": "2024-10-18T16:33:17.085Z",
  "networkType": "ethereum",
  "devdoc": {
    "kind": "dev",
    "methods": {},
    "version": 1
  },
  "userdoc": {
    "kind": "user",
    "methods": {},
    "version": 1
  }
}