{
  "contractName": "FileRegistry",
  "abi": [
    {
      "inputs": [],
      "name": "recordCount",
      "outputs": [
        {
          "internalType": "uint256",
          "name": "",
          "type": "uint256"
        }
      ],
      "stateMutability": "view",
      "type": "function",
      "constant": true
    },
    {
      "inputs": [
        {
          "internalType": "bytes32",
          "name": "",
          "type": "bytes32"
        }
      ],
      "name": "records",
      "outputs": [
        {
          "internalType": "address",
          "name": "owner",
          "type": "address"
        },
        {
          "internalType": "bytes32",
          "name": "fileHash",
          "type": "bytes32"
        },
        {
          "internalType": "string",
          "name": "fileName",
          "type": "string"
        }
      ],
      "stateMutability": "view",
      "type": "function",
      "constant": true
    },
    {
      "inputs": [
        {
          "internalType": "address",
          "name": "",
          "type": "address"
        },
        {
          "internalType": "uint256",
          "name": "",
          "type": "uint256"
        }
      ],
      "name": "userFiles",
      "outputs": [
        {
          "internalType": "bytes32",
          "name": "",
          "type": "bytes32"
        }
      ],
      "stateMutability": "view",
      "type": "function",
      "constant": true
    },
    {
      "inputs": [
        {
          "internalType": "bytes32",
          "name": "_fileHash",
          "type": "bytes32"
        },
        {
          "internalType": "string",
          "name": "_fileName",
          "type": "string"
        }
      ],
      "name": "addRecord",
      "outputs": [],
      "stateMutability": "nonpayable",
      "type": "function"
    },
    {
      "inputs": [
        {
          "internalType": "bytes32",
          "name": "_fileHash",
          "type": "bytes32"
        }
      ],
      "name": "verifyFileHash",
      "outputs": [
        {
          "internalType": "bool",
          "name": "",
          "type": "bool"
        }
      ],
      "stateMutability": "view",
      "type": "function",
      "constant": true
    },
    {
      "inputs": [],
      "name": "getUserFiles",
      "outputs": [
        {
          "components": [
            {
              "internalType": "address",
              "name": "owner",
              "type": "address"
            },
            {
              "internalType": "bytes32",
              "name": "fileHash",
              "type": "bytes32"
            },
            {
              "internalType": "string",
              "name": "fileName",
              "type": "string"
            }
          ],
          "internalType": "struct FileRegistry.FileRecord[]",
          "name": "",
          "type": "tuple[]"
        }
      ],
      "stateMutability": "view",
      "type": "function",
      "constant": true
    }
  ],
  "bytecode": "0x608060405234801561001057600080fd5b50610f52806100206000396000f3fe608060405234801561001057600080fd5b50600436106100625760003560e01c806301e647251461006757806311942989146100995780631793b0f2146100b75780631e2bdade146100d3578063718f38a614610103578063900407bc14610133575b600080fd5b610081600480360381019061007c9190610930565b610151565b60405161009093929190610b92565b60405180910390f35b6100a1610223565b6040516100ae9190610bd0565b60405180910390f35b6100d160048036038101906100cc9190610959565b6104f1565b005b6100ed60048036038101906100e89190610930565b6106cb565b6040516100fa9190610bf2565b60405180910390f35b61011d600480360381019061011891906108f4565b610739565b60405161012a9190610c0d565b60405180910390f35b61013b61076a565b6040516101489190610c48565b60405180910390f35b60006020528060005260406000206000915090508060000160009054906101000a900473ffffffffffffffffffffffffffffffffffffffff16908060010154908060020180546101a090610dbe565b80601f01602080910402602001604051908101604052809291908181526020018280546101cc90610dbe565b80156102195780601f106101ee57610100808354040283529160200191610219565b820191906000526020600020905b8154815290600101906020018083116101fc57829003601f168201915b5050505050905083565b60606000600160003373ffffffffffffffffffffffffffffffffffffffff1673ffffffffffffffffffffffffffffffffffffffff1681526020019081526020016000208054806020026020016040519081016040528092919081815260200182805480156102b057602002820191906000526020600020905b81548152602001906001019080831161029c575b505050505090506000815167ffffffffffffffff8111156102fa577f4e487b7100000000000000000000000000000000000000000000000000000000600052604160045260246000fd5b60405190808252806020026020018201604052801561033357816020015b610320610770565b8152602001906001900390816103185790505b50905060005b82518110156104e85760008084838151811061037e577f4e487b7100000000000000000000000000000000000000000000000000000000600052603260045260246000fd5b602002602001015181526020019081526020016000206040518060600160405290816000820160009054906101000a900473ffffffffffffffffffffffffffffffffffffffff1673ffffffffffffffffffffffffffffffffffffffff1673ffffffffffffffffffffffffffffffffffffffff1681526020016001820154815260200160028201805461040f90610dbe565b80601f016020809104026020016040519081016040528092919081815260200182805461043b90610dbe565b80156104885780601f1061045d57610100808354040283529160200191610488565b820191906000526020600020905b81548152906001019060200180831161046b57829003601f168201915b5050505050815250508282815181106104ca577f4e487b7100000000000000000000000000000000000000000000000000000000600052603260045260246000fd5b602002602001018190525080806104e090610df0565b915050610339565b50809250505090565b600073ffffffffffffffffffffffffffffffffffffffff1660008084815260200190815260200160002060000160009054906101000a900473ffffffffffffffffffffffffffffffffffffffff1673ffffffffffffffffffffffffffffffffffffffff1614610595576040517f08c379a000000000000000000000000000000000000000000000000000000000815260040161058c90610c28565b60405180910390fd5b600260008154809291906105a890610df0565b919050555060405180606001604052803373ffffffffffffffffffffffffffffffffffffffff1681526020018381526020018281525060008084815260200190815260200160002060008201518160000160006101000a81548173ffffffffffffffffffffffffffffffffffffffff021916908373ffffffffffffffffffffffffffffffffffffffff16021790555060208201518160010155604082015181600201908051906020019061065d9291906107aa565b50905050600160003373ffffffffffffffffffffffffffffffffffffffff1673ffffffffffffffffffffffffffffffffffffffff1681526020019081526020016000208290806001815401808255809150506001900390600052602060002001600090919091909150555050565b60008073ffffffffffffffffffffffffffffffffffffffff1660008084815260200190815260200160002060000160009054906101000a900473ffffffffffffffffffffffffffffffffffffffff1673ffffffffffffffffffffffffffffffffffffffff1614159050919050565b6001602052816000526040600020818154811061075557600080fd5b90600052602060002001600091509150505481565b60025481565b6040518060600160405280600073ffffffffffffffffffffffffffffffffffffffff16815260200160008019168152602001606081525090565b8280546107b690610dbe565b90600052602060002090601f0160209004810192826107d8576000855561081f565b82601f106107f157805160ff191683800117855561081f565b8280016001018555821561081f579182015b8281111561081e578251825591602001919060010190610803565b5b50905061082c9190610830565b5090565b5b80821115610849576000816000905550600101610831565b5090565b600061086061085b84610c94565b610c63565b90508281526020810184848401111561087857600080fd5b610883848285610d7c565b509392505050565b60008135905061089a81610ed7565b92915050565b6000813590506108af81610eee565b92915050565b600082601f8301126108c657600080fd5b81356108d684826020860161084d565b91505092915050565b6000813590506108ee81610f05565b92915050565b6000806040838503121561090757600080fd5b60006109158582860161088b565b9250506020610926858286016108df565b9150509250929050565b60006020828403121561094257600080fd5b6000610950848285016108a0565b91505092915050565b6000806040838503121561096c57600080fd5b600061097a858286016108a0565b925050602083013567ffffffffffffffff81111561099757600080fd5b6109a3858286016108b5565b9150509250929050565b60006109b98383610b33565b905092915050565b6109ca81610d2a565b82525050565b6109d981610d2a565b82525050565b60006109ea82610cd4565b6109f48185610cf7565b935083602082028501610a0685610cc4565b8060005b85811015610a425784840389528151610a2385826109ad565b9450610a2e83610cea565b925060208a01995050600181019050610a0a565b50829750879550505050505092915050565b610a5d81610d3c565b82525050565b610a6c81610d48565b82525050565b610a7b81610d48565b82525050565b6000610a8c82610cdf565b610a968185610d08565b9350610aa6818560208601610d8b565b610aaf81610ec6565b840191505092915050565b6000610ac582610cdf565b610acf8185610d19565b9350610adf818560208601610d8b565b610ae881610ec6565b840191505092915050565b6000610b00601483610d19565b91507f4861736820616c7265616479206578697374732e0000000000000000000000006000830152602082019050919050565b6000606083016000830151610b4b60008601826109c1565b506020830151610b5e6020860182610a63565b5060408301518482036040860152610b768282610a81565b9150508091505092915050565b610b8c81610d72565b82525050565b6000606082019050610ba760008301866109d0565b610bb46020830185610a72565b8181036040830152610bc68184610aba565b9050949350505050565b60006020820190508181036000830152610bea81846109df565b905092915050565b6000602082019050610c076000830184610a54565b92915050565b6000602082019050610c226000830184610a72565b92915050565b60006020820190508181036000830152610c4181610af3565b9050919050565b6000602082019050610c5d6000830184610b83565b92915050565b6000604051905081810181811067ffffffffffffffff82111715610c8a57610c89610e97565b5b8060405250919050565b600067ffffffffffffffff821115610caf57610cae610e97565b5b601f19601f8301169050602081019050919050565b6000819050602082019050919050565b600081519050919050565b600081519050919050565b6000602082019050919050565b600082825260208201905092915050565b600082825260208201905092915050565b600082825260208201905092915050565b6000610d3582610d52565b9050919050565b60008115159050919050565b6000819050919050565b600073ffffffffffffffffffffffffffffffffffffffff82169050919050565b6000819050919050565b82818337600083830152505050565b60005b83811015610da9578082015181840152602081019050610d8e565b83811115610db8576000848401525b50505050565b60006002820490506001821680610dd657607f821691505b60208210811415610dea57610de9610e68565b5b50919050565b6000610dfb82610d72565b91507fffffffffffffffffffffffffffffffffffffffffffffffffffffffffffffffff821415610e2e57610e2d610e39565b5b600182019050919050565b7f4e487b7100000000000000000000000000000000000000000000000000000000600052601160045260246000fd5b7f4e487b7100000000000000000000000000000000000000000000000000000000600052602260045260246000fd5b7f4e487b7100000000000000000000000000000000000000000000000000000000600052604160045260246000fd5b6000601f19601f8301169050919050565b610ee081610d2a565b8114610eeb57600080fd5b50565b610ef781610d48565b8114610f0257600080fd5b50565b610f0e81610d72565b8114610f1957600080fd5b5056fea264697066735822122098fa7869ff2b165a19122089e263e5a4512e2aca9430ff9e8fc829851f55481264736f6c63430008000033",
  "immutableReferences": {},
  "source": "pragma solidity ^0.8.0;\n\ncontract FileRegistry {\n    struct FileRecord {\n        address owner;\n        bytes32 fileHash;\n        string fileName;\n    }\n\n    mapping(bytes32 => FileRecord) public records;\n    mapping(address => bytes32[]) public userFiles;\n    uint256 public recordCount;\n\n    function addRecord(bytes32 _fileHash, string memory _fileName) public {\n        require(records[_fileHash].owner == address(0), \"Hash already exists.\");\n\n        recordCount++;\n\n        records[_fileHash] = FileRecord({\n            owner: msg.sender,\n            fileHash: _fileHash,\n            fileName: _fileName\n        });\n\n        userFiles[msg.sender].push(_fileHash);\n    }\n\n    function verifyFileHash(bytes32 _fileHash) public view returns (bool) {\n        return records[_fileHash].owner != address(0);\n    }\n\n    function getUserFiles() public view returns (FileRecord[] memory) {\n        bytes32[] memory hashes = userFiles[msg.sender];\n        FileRecord[] memory userRecords = new FileRecord[](hashes.length);\n\n        for (uint256 i = 0; i < hashes.length; i++) {\n            userRecords[i] = records[hashes[i]];\n        }\n\n        return userRecords;\n    }\n}\n",
  "sourcePath": "/Users/michalpozdal/Desktop/studia/CertifyLite/src/contracts/FileRegistry.sol",
  "compiler": {
    "name": "solc",
    "version": "0.8.0+commit.c7dfd78e.Emscripten.clang"
  },
  "schemaVersion": "3.4.16",
  "updatedAt": "2024-10-18T18:35:42.138Z",
  "networkType": "ethereum",
  "devdoc": {
    "kind": "dev",
    "methods": {},
    "version": 1
  },
  "userdoc": {
    "kind": "user",
    "methods": {},
    "version": 1
  }
}